:020000021000EC
:108000000040002079BE0100C1BE0100C3BE0100D6
:108010000000000000000000000000000000000060
:10802000000000000000000000000000C5BE0100CC
:108030000000000000000000C7BE0100C9BE010032
:10804000CBBE0100CBBE0100B9A60100C1BB01003F
:10805000CBBE010000000000BDAA0100CBBE0100A4
:10806000CBBE0100CBBE0100CBBE0100CBBE0100E8
:10807000CBBE0100CBBE0100CBBE0100CBBE0100D8
:10808000CBBE0100A9970100CBBE0100CBBE010011
:1080900089980100CBBE010045BE0100CBBE0100A6
:1080A000CBBE0100CBBE01000000000000000000BC
:1080B00000000000000000000000000000000000C0
:1080C000054B0648033310B51B1A062B03D9044B86
:1080D000002B00D0984710BD882000208820002069
:1080E000000000000648074910B5091A8910CB0F97
:1080F0005918491003D0044B002B00D0984710BDED
:1081000088200020882000200000000010B5074CC7
:108110002378002B09D1FFF7D3FF054B002B02D0AA
:10812000044800E000BF0123237010BD8820002018
:108130000000000090D30100094B10B5002B03D0C4
:108140000849094800E000BF08480368002B02D135
:10815000FFF7C8FF10BD064B002BF9D09847F7E793
:10816000000000008C20002090D301008820002017
:1081700000000000164B002B00D1144B9D464022FE
:1081800092029A1A924600218B460F461348144ACF
:10819000121A00F067F80F4B002B00D098470E4BD7
:1081A000002B00D098470020002104000D000D484E
:1081B000002802D00C4800E000BF00F02DF820009D
:1081C000290000F0C9FD00F011F8C04600000800C9
:1081D0000040002000000000000000008820002077
:1081E000EC2500200000000000000000084B10B546
:1081F0000400002B02D0002100E000BF054B1868EE
:10820000836A002B00D09847200000F033F8C04666
:10821000000000005CD001000E4B70B500251E0070
:108220000D4CE41AA410A54204D0AB00F3589847B3
:108230000135F8E704F004FF084B00251E00084C48
:10824000E41AA410A54204D0AB00F35898470135B6
:10825000F8E770BD802000208020002080200020D2
:108260008420002003008218934202D01970013349
:10827000FAE77047FEE7C046A02210B5064BD205CC
:10828000D15880231B041C00A1208C430B400349C0
:10829000C0001450535010BD040500000C05000030
:1082A000F8B54F4646460400C0B4012809D012284C
:1082B00039D0132839D0142839D00CBC90469946AF
:1082C000F8BD0025012911D000291FD00229F4D1C1
:1082D0006B005D191F4B5D196E78002EEDD01E4BA3
:1082E0001B68002BE9D030009847E6E7194B6F0078
:1082F000984642467B19D65C43445B78002B18D1E4
:108300007F194744BA78154B5A55E6E7144801F0EF
:108310002BFE104A6B005B19D318104A9B78565DF0
:108320009E42CAD1D9E70125CCE70225CAE7032539
:10833000C8E70C4B0A4899460B4B4A461B68990004
:10834000C918490001F08CFD0028D9D14B461C709A
:10835000D6E7C04620210020D8200020D0200020D1
:10836000DC200020C8200020D4200020F8B5B64B27
:108370001B68DB0700D4F8BDB44A1478172CFAD870
:10838000B349A300CB589F46A023A122C021DB05FF
:10839000D2004904802499500021AE48E4031950CA
:1083A0001C509950E7E7A022AB4BD205D15880234F
:1083B000DB031C00A1208C430B40A649C0001450D5
:1083C0005350A64B00221968A54801F049FDD2E799
:1083D000A022A14BD205D1588023DB031C00A12091
:1083E0008C430B409B49C000145053509B4B0022C0
:1083F0001B689B489900C91801F032FDBBE7A02318
:10840000E021944ADB05490499500021043A99502F
:10841000B1E7944BA1211A68E0235B049343A022A7
:10842000C900D205535000218A4BD150A3E78D4B90
:10843000A1201968C0235B048B43A0210027E026FC
:10844000C905C000834D0B50834B4F51CB58760468
:1084500073408026F603334000D1ECE00E504F51BC
:108460002821022C00D1C4E014701BE07D4BA12018
:108470001968C0235B048B43A0210026E025C905B1
:10848000C000744C0B50744B0E51CB586D046B40B4
:108490008025ED032B4000D1BDE00D5003230E518C
:1084A000082113706D4B00221B686D48594301F081
:1084B000D7FC60E76B4BA1201968C0235B048B439A
:1084C000A0210026E025C905C000624C0B50624B7C
:1084D0000E51CB586D046B408025ED032B4000D12D
:1084E000A6E00D500E51062313706AE7A023E02189
:1084F000A122DB054904D20099500021554A995028
:1085000039E7584BA1201968C0235B048B43A02195
:108510000026E025C905C0004E4C0B504E4B0E51B5
:10852000CB586D046B408025ED032B4078D00D5067
:1085300004230E512821B4E74B4D280001F014FD0F
:1085400011231C1B58D0002856D18023454E1B04F4
:108550003360012C10D0C8306421604303F0B6FCB6
:108560003E4B00221B6843432800190001F078FCB1
:10857000E02332685B041340A0223649D2055350F1
:10858000A1230021DB00D150F5E6C022354B520477
:108590001B68A1219A43A023C900DB0580245A50FF
:1085A00000222C48E4031A501C505A50E3E62D4B8D
:1085B000A1201968C0235B048B43A0210026E0257D
:1085C000C905C000234C0B50234B0E51CB586D04F2
:1085D0006B408025ED032B4027D00D500E51052315
:1085E00013701E4B002219681D48490001F038FC29
:1085F000C1E61639147055E7E0231A4A5B04116886
:10860000A1200B40A021C000C9050B500023114838
:108610000B501360AFE60D510B500221032340E7CE
:108620000D510B50042104233BE70D510B50D6E7AD
:108630000D510B5057E74E510B500421022C00D026
:1086400012E7023914702DE7CC200020FC20002016
:1086500060D001000C05000004050000D4200020BB
:10866000A4200020C42000200021002010B50378A1
:10867000012B06D0122B12D0132B12D0142B12D098
:1086800010BD00235A00D318084AD3185878002880
:10869000F6D0074B1B68002BF2D09847F0E7012378
:1086A000F0E70223EEE7113BECE7C0462021002073
:1086B000D820002070B5DB4B04001B680020DB07CE
:1086C00000D470BD172CFCD8D74AA300D3589F46BE
:1086D000A022D64BD205D1588023DB031C00A12059
:1086E0008C430B40D249C00014505350D14B002250
:1086F0001B68D1489900C91801F0B2FBE1E7A0223C
:10870000CA4BD205D1588023DB031C00A1208C4327
:108710000B40C749C00014505350C64B0022196883
:10872000C54801F09DFBCCE7C44D280001F01CFCBE
:1087300011231C1B00D14CE1002800D049E180230B
:10874000BF4E1B043360012C10D0C830642160433D
:1087500003F0BCFBB74B00221B6843432800190001
:1087600001F07EFBE02332685B041340A022B04995
:10877000D2055350A1230021DB00D150A1E7A02353
:10878000E021A122DB054904D20099500021A84A2A
:10879000002099501222AB4B1A7092E7A023A1221D
:1087A000C021DB05D2004904802499500021A04853
:1087B000E40319501C5099501322A24B00201A7048
:1087C0007FE7A023E0219A4ADB0549049950002164
:1087D000043A99509B4B00201C7072E7984BA121E2
:1087E0001A68E0235B049343A022C900D2055350CA
:1087F00000238F4900205350924A137061E7904B39
:10880000A1211A68C0235B049343A0220026E0251F
:10881000D205C90086485350844B1650D3586D0476
:108820006B408025ED032B4000D1E9E055501650F8
:108830002821022C00D1F2E0824B1C707D4B0022DB
:108840001B687D48594301F00BFB3AE7A023E02168
:10885000774ADB05490499500021043A99500C22CB
:10886000784B00201A702CE7A023A122C021DB0541
:10887000D20049048024995000216D48E403195026
:108880001C50995014226F4B00201A7019E76C4B42
:10889000A1211A68C0235B049343A0220025E02491
:1088A000D205C90062485350604B1550D358640438
:1088B00063408024E403234000D199E054501550D4
:1088C000082103221AE05E4BA1211A68C0235B0431
:1088D0009343A0220025E024D205C90054485350F8
:1088E000524B1550D358640463408024E403234062
:1088F00000D18DE05450282115500422514B1A709C
:108900009CE7C0224E4B52041B68A1219A43A0232E
:10891000C900DB0580245A5000224548E4031A5060
:108920001C505A50474B07321A700020C9E6A0234A
:10893000A122C021DB05D2004904802499500021E6
:108940003B48E40319501C50995015223D4B002020
:108950001A70B6E63A4BA1211A68C0235B04934310
:10896000A0220025E024D205C900314853502F4BE6
:108970001550D358640463408024E40323403CD062
:108980005450155005222F4B2B481A70294B0022AA
:108990001968490001F064FA93E6294BA1211A688D
:1089A000C0235B049343A0220025E024D205C90024
:1089B0001F4853501D4B1550D35864046340802406
:1089C000E403234028D05450155006221D4B1A7042
:1089D000A3E6E0231A4A5B041168A1240B40A021FE
:1089E000E400C9050B510023114C0B51136068E6DC
:1089F000145053500221032280E714505350C1E712
:108A0000155053500421022C00D015E7023913E70A
:108A100014505350042170E714505350D5E71639C1
:108A20000AE7C046CC200020C0D0010004050000A9
:108A30000C050000D4200020A420002000210020EC
:108A4000C4200020FC200020234B10B51960234BCC
:108A500004001860224B1A60830712D50D22214BA7
:108A600021481A700132DA7001329A7101325A7259
:108A70004A08042101F05EFB002820D0E30703D45C
:108A800010BD0020E3070DD5A023E022A121002482
:108A9000DB055204C9005A5014495C500C315A503D
:108AA0000028EDD1124A0021124801F0BFF9002838
:108AB000E6D1114A0121114801F0B8F9E0E701F0CF
:108AC00093FB0028DAD10E4A00210E4801F0AEF9DE
:108AD000E307D9D4E4E7C046D4200020CC2000200E
:108AE000D8200020202100202CD101000C050000FE
:108AF0006D83010024D101007982010028D1010099
:108B00006D86010020D1010073DF704760DF704780
:108B100048DF704710B50378012B01D0022B04D138
:108B200040680022002100F0F7FD10BDF0B55F465F
:108B300056464D464446F0B4037887B0002B0ED01D
:108B4000012B05D1614A1178002900D0A5E01370EE
:108B500007B03CBC90469946A246AB46F0BD5C4B84
:108B60005C4D9A461B7804931A005B4B960098461E
:108B70004346B14699572B88C1445B1A9BB22B8060
:108B80009C4601224B469A569B78AF885BB2FF1AEF
:108B9000BFB26C880597514F4846BB46A41AA4B291
:108BA0006C80FF78C770584600788146400606D42E
:108BB0004946404689068916C9B2815549B2584688
:108BC00040788146400608D44A46B146C1444846EA
:108BD00092069216D2B2427052B2584680788146BE
:108BE000400608D44B46B146C14448469B069B16F6
:108BF000DBB283705BB2A418059A61449446634467
:108C00009BB29946AB805346049889B20130A4B216
:108C1000C0B229806C801870132835D900235246C1
:108C20002F4D1370FB065B0F013BDBB2052B48D8C1
:108C30002C4A9B009B589A4608B2142103F0D0F9A5
:108C4000142103B220B29B4603F0CAF94B4604B28A
:108C5000142118B203F0C4F903B2BA062FD5224A80
:108C60007FB2002F30DB21490192524602910092DF
:108C7000594622001E48464403F0A8FAF3782B70A8
:108C800001221C4B1A7063E7154D0028CAD02B78BF
:108C9000002BF5D09F42C5D1F2E70023154A4C21A5
:108CA0001370154800930D4A043302F07DFF00282D
:108CB00000D14DE70022002100F02EFD48E70B4ACD
:108CC000CEE70E4B9A46B7E70D49CDE72D210020A0
:108CD00064230020B023002030210020B82400208D
:108CE0002C21002070D101008CD10100F0D10100B5
:108CF0009CD101006420002068D1010088D10100CE
:108D000094D1010010B50A000100024800F004FDF2
:108D100010BDC046EFBEADDE30B585B06A460B4B28
:108D2000694631CB31C20A4C1B6820001360002316
:108D3000084A02F01FFE002803D00022002100F0A4
:108D4000EBFC200002F002FF05B030BD4CD1010069
:108D500068D101002D8B010030B593B001AD2A0020
:108D6000494B103313CB13C2484B04AC049301237B
:108D70006360474B474AA36080235B00E3602100A8
:108D8000FD3B280001F0A8FA002803D000220021B2
:108D900000F0C2FC404803F019FAFFF7BDFF0023C2
:108DA0003E4A0521002000F0CFFF002803D000221A
:108DB000002100F0B1FC002239490120FFF744FEF8
:108DC000002803D00022002100F0A6FC0023482246
:108DD0003449082003F010F8002803D000220021B5
:108DE00000F09AFC082200212000FFF73BFA012244
:108DF0002378200093432370FFF788FE002803D0D8
:108E00000022002100F088FC59232B80264B0021F2
:108E1000AB60172338222000AB80FFF723FA002332
:108E20000021237020000433E370656200F0A2FB90
:108E3000002803D00022002100F06EFC1B4C1822F9
:108E400000212000FFF70EFA0323A0222370002345
:108E500020006360237222826382FFF755FE0028A0
:108E600003D00022002100F057FC0220FFF722FC73
:108E7000002803D1FFF74CFE0028FBD00022002180
:108E800000F04AFCF6E7C0464CD101004823002020
:108E9000B8230020158B0100C0D1010080210020E3
:108EA000CD0C000068230020682000204C23002007
:108EB00071DF704772DF704779DF70477DDF704781
:108EC00065DF7047F0B55F4656464D464446F0B400
:108ED00085B09A460EAB80CB06001B8800919B465E
:108EE0003B8801930388002B64D000230E9799469A
:108EF00002ABDD1C0E9B00241700984603E033886C
:108F00000134A3422CDD7368A1009C460422614415
:108F100003A803F051F90022290003A8FFF7D0FFAE
:108F2000002829D12B78BB42E9D14B46002B2AD00F
:108F300043461A88D3195B453EDC5244290003A8F6
:108F4000FFF7BEFF002817D143462A781B8801345B
:108F5000D31842461380012399463388A342D2DCBA
:108F60004B464746002B25D03B88019A013B9B1A74
:108F70009BB20C20FF2B1AD905B03CBC90469946F9
:108F8000A246AB46F0BD43461B88DA1902325A4569
:108F900012DC4246013369469BB21380524609787F
:108FA000D15443461A88013292B21A80C5E71100A3
:108FB000524653540020DFE70C20DDE7F0B55F4652
:108FC00056464D4644460023F0B417881380436B41
:108FD00087B006000D001400002B00D19BE1022F8A
:108FE00000D890E11A7802230B70112123880133F5
:108FF0009BB22380E954238801339BB22380EA5437
:10900000238801339BB22380326B002A00D170E0A9
:1090100019001231B94200D975E11121E9542388B0
:10902000013901339BB22380E954238801339BB279
:109030002380D17BE954238801339BB22380917B29
:10904000E954238801339BB22380517BE954238860
:1090500001339BB22380117BE954238801339BB2F7
:109060002380D17AE954238801339BB22380917AFB
:10907000E954238801339BB22380517AE954238831
:1090800001339BB22380117AE954238801339BB2C8
:109090002380D179E954238801339BB223809179CD
:1090A000E954238801339BB223805179E954238802
:1090B00001339BB223801179E954238801339BB299
:1090C0002380D178E954238801339BB2238091789F
:1090D000E954238801339BB223805178E9542388D3
:1090E00001339BB223801278EA54238801339BB268
:1090F00023802E22B25C002A00D00EE12D22B25C29
:10910000002A00D02BE1B278002A00D054E1F27896
:10911000002A14D0D91CB94200D9F4E00221E95444
:109120002388013901339BB22380E954238801331A
:109130009BB22380EA54238801339BB22380726858
:10914000002A14D0D91CB94200D9DCE002211278DF
:10915000E9542388083101339BB22380E9542388E2
:1091600001339BB22380EA5423880133238033895F
:10917000002B00D09CE1338A002B00D0B2E1338B6E
:10918000002B00D0C8E1336A002B4BD022880C2082
:10919000911D9346B94200D9B6E0198805388A4630
:1091A000052900D8B0E0BC496A468C46D4446146E3
:1091B000D181D1898C46B94988468C4500D8A3E035
:1091C00059888C46052900D89EE0B3496144D18175
:1091D00089B2414500D897E0B1498A4504D08C4511
:1091E00002D0E24500D98FE005215A46A9542288D1
:1091F0000D31013292B22280A9542288013292B2FA
:1092000022801988AA181170090A51702288023226
:1092100092B222805988AB181970090A59702388B4
:1092200002332380736A9846002B30D09A882188B5
:10923000131D5B180C20BB4266D8931CFE2B63D811
:1092400003326A54FF22238801339BB22380EA54FD
:109250004246238801339BB223801288EB181A7090
:10926000120A5A704246238802339BB223809288A6
:10927000002A0CD0414689680538002944D0E818F6
:1092800002F09AFF434622889B88D31823802C2320
:10929000F35C002B00D0B0E033780020002B33D0FB
:1092A00032880720012A2FD02288901CB8422AD861
:1092B000012B04D1737802339B189F4223D3023FC2
:1092C000BA1A04AF93B22818390098463B80FFF7CA
:1092D000F5FD002818D13378022B00D142E1012B93
:1092E00000D1DFE043460821FE2B0CD822885E1C0B
:1092F000AE542288013292B22280A95422880132CF
:109300009B18238000E00C2007B03CBC9046994697
:10931000A246AB46F0BD002376E6D91C0C20B9422C
:10932000F2D80221E9542388103001339BB2238004
:10933000E854238801339BB22380022A00D10CE138
:1093400000D805E1032A00D10AE1042A00D0FDE09B
:109350000322EA54238801339BB22380CEE60933EB
:109360000C20BB42D0D804A8FFF7A2FD0028CBD127
:10937000082223880921EA542388133201339BB23F
:109380002380EA5402AB9C462088153A013080B213
:1093900020806144281802F00FFF238802AA0633B8
:1093A000127A9BB22380002A00D00122EA5423883B
:1093B00001339BB22380A6E604330C20BB42A3D822
:1093C00004A8FFF779FD00289ED103222388EA54E0
:1093D0002388163201339BB22380EA54238802AAE1
:1093E00001339BB212892380EB181A70120A5A704B
:1093F000238802339BB2238089E6B36A9846002B08
:1094000000D1A3E09B880233FE2B00D97BE700222A
:109410009146163292461632208893460CE04B460F
:10942000B26A5B0090464B449B00984443469B883D
:109430000233FE2B00D966E7524601332B542388B2
:1094400001339BB22380EA544246238801339BB206
:1094500023801288EB181A70120A5A70434620882B
:10946000023080B220809A88002A0BD099680029A7
:109470006CD0281802F0A0FE434620889B88C018B4
:1094800080B220804B460133DBB299465B46F35CE9
:109490004B45C4D800E7C0467FF3FFFF7DF30000D3
:1094A000FFFF00007378984500D31CE743461AE796
:1094B00008239846B044019700942B000222022111
:1094C0004046FFF7FFFC002800D01DE701970094FD
:1094D0002B00102206214046FFF7F4FC002800D0A4
:1094E00012E748E610239846B044019700942B00F9
:1094F000022203214046FFF7E5FC002800D003E7E5
:10950000019700942B00102207214046FFF7DAFC58
:10951000002800D0F8E632E618239846B0440197B8
:1095200000942B00022214214046FFF7CBFC0028B8
:1095300000D0E9E6019700942B0010221521404647
:10954000FFF7C0FC002800D0DEE61CE60720DBE6C3
:10955000012AFBD10022EA54FCE60122EA54F9E692
:10956000E954F7E63B880921984500D3BCE6434619
:10957000B9E6C04630B593B01F236A460C0093800D
:10958000D380002822D0C3785B071CD501AA02A98A
:10959000FFF714FD02AD002816D1002C19D0E37896
:1095A000002B10D16B460AA99A1D2000FFF706FD7B
:1095B000002809D16B469B790AAA694628000979D7
:1095C000FFF778FC00E0072013B030BD9080002545
:1095D000E3E76B460022DC800023EEE71D4B1B789F
:1095E000012B00D070471C4B1B681B07FAD1F022DF
:1095F0001A4B1B68134018D1194B1B6813421CD01F
:10960000154B1B681B07EDD1F022144B1B68134050
:10961000402BE7D1124B1B681342E3D1C1238022B8
:109620000121DB00D205D150DCE7102B01D0302B1B
:10963000EAD10B4B1B681342E6D10A4A0A4B1A6067
:1096400080220A4B12021A60024B1B78012BD7D0E2
:10965000C8E7C046E00F00F0E40F00F0E80F00F0AC
:10966000EC0F00F0DFFF07C004050040186C00405D
:1096700070B516000C008D18002A05DD2078013425
:1096800000F096FEAC42F9D1300070BD10B50C0070
:10969000200000F073FE0528FAD0012010BDC0465E
:1096A00010B500290DD00923002A01D1180010BDE2
:1096B000541E2240FAD1826001608480C26000237F
:1096C000F4E70E23F2E7C046030010B59C888068DB
:1096D000DA68121A0420944200D210BDDA68002021
:1096E00014401A681155DA680132DA60F5E7C046AD
:1096F00010B58468C26803000520944200D110BDF3
:1097000098689A8802401868825C00200A709A68FB
:1097100001329A60F3E7C046BFF34F8F024A034B12
:10972000DA60BFF34F8FFEE70400FA0500ED00E0BA
:1097300080218023184A8902D1508022D221174BE0
:10974000520289005A5040395A5001222F205A6043
:109750000138C046C046C046C046C046C046C046A6
:10976000C046C046C046C046C046F1D19A600023FC
:109770000B4A2F2013600138C046C046C046C04681
:10978000C046C046C046C046C046C046C046C046A9
:10979000F1D1044A1370704700E100E0001001406D
:1097A000BC240020DC240020A021F0B50023474683
:1097B0002C4A490080B45350043153500431535063
:1097C000043153504C39535004315350264B1B68CD
:1097D000002B37D02549002652582549254F0C68C3
:1097E000141B00222402240A904602E0002D1AD005
:1097F0002B001A68A24216D8A41AB6181A7CDD6982
:10980000002AF3D0424699691A745A693B68002BC2
:109810001BD0100098470028E8D000220021FFF755
:109820007BFF002DE4D1144B14491A780B789A422F
:109830000ED0134A9B009E5080218023114A490379
:109840005B00D15004BC9046F0BD08009047CDE7C6
:109850000132D3B2022B01D00B70EAE700230B7068
:10986000E7E7C04600100140C024002004050000C6
:10987000BC240020C4240020D0240020D1240020B7
:10988000D424002000E100E0F0B55F4656464D4686
:109890004446F0B4C24BC34A1B68C3498BB005931E
:1098A00009781378994200D154E10133DBB2022BDD
:1098B00000D100231370BD4A9B009B58B84A9A46BA
:1098C000059B53441B021B0A136001230193B84BF1
:1098D00000241B689B46B74B5A461B7891461900DB
:1098E00088460393B44B47461B68013F0493AC4B37
:1098F0001B680893B14B1B780793002309930693C9
:109900001E00FBB29846FF2B32D04346D800049B82
:109910009C46130060440178457800961A00A942DD
:109920001FD046684A00B446521886780131D200EA
:10993000C9B262448E4200D1EBE01678022E00D10B
:10994000C5E0032EEAD1002BE8D01C74DB69002BA4
:10995000FBD1013345780093002399461A00A942B0
:10996000DFD14746013FFBB2009E9846FF2BCCD18A
:109970000292002E00D0F1E0069B002B02D0884B13
:10998000089A1A60099B002B03D06A468B4B127F02
:109990001A70019B002B00D02AE15B46029A002539
:1099A0009B1A5A1E9341DBB205937D4B00271B681F
:1099B00002999C467E4B1B689B46804B1B78069306
:1099C000002301937E4B994601230093039B013BA7
:1099D000DBB20393FF2B00D1F6E0049ADB00924642
:1099E0000E009A44002D28D06A68A9682C00ED6901
:1099F0006346D31A1B021B0A4B4552D86A4612789B
:109A00005B1823606760A7602274E761002E58D05E
:109A100031683000994205D3B6E01168994200D30D
:109A2000A0E01000C2695B1A002AF6D1E2613200A0
:109A30002360C4611600002DD6D153461A785B7896
:109A400031009342C2D0514649685300884651467E
:109A50009B180132D2B20A708978DB0043449142EC
:109A600000D19AE0197832000129E3D15C68227CA8
:109A70009046414632000029DCD19A686260D9687C
:109A8000A1601869E0605B69A361069B002BAFD001
:109A90004346002263606346D31A1B021B0A4B45F0
:109AA000ACD963469A1A1202120A8A4261D28B1A00
:109AB0006A46127823606760A7602274E761002E0F
:109AC000A6D122000123A34601931600B3E75668EE
:109AD000002B30D09E421ED0009A1F00944602E018
:109AE000964206D01700FA69002AF9D16246009220
:109AF00014E765460095BA420FD01568D269FA613D
:109B0000002A16D013689C466544156045784B467C
:109B100004E7002111E71A001F00DE69002E0CD0B7
:109B2000012500951568D269B1463300FA61002A13
:109B3000E8D14578F2E60023F0E60125214B9D604F
:109B40000995079506950025002308950135994646
:109B50000095D2E700239A460193B8E64A46144B93
:109B60001A6009E7C91A1160E26123603200C4611A
:109B700060E76B461B7827606760A7602374E76126
:109B8000002E9ED000233168CB1A336022000123BF
:109B9000E661A346019316004DE75246157061E752
:109BA000BC240020D0240020D1240020D424002074
:109BB000C0240020C8240020CC240020D22400206F
:109BC000FEFF7F0000100140019B002B00D09DE0B4
:109BD000029B994236D1059B002B33D10023534A77
:109BE00013700BB03CBC90469946A246AB46F0BD04
:109BF0004F4B002418680025029B00210026574681
:109C000015E01A68BA4200D984E0D868BF1A8918EA
:109C10001E60DC69002807D0DD611D00059A986090
:109C200052181202120A5A6023002000019C002BD5
:109C3000E7D1002C01D03E4B186000230293013382
:109C40000593B2E6002900D15DE00B6839489846DB
:109C5000394B3A4DC4583A4B2E781B68E11A090229
:109C6000090A0331002E2DD042468A4200D20A0052
:109C7000A820D21812022F49130AC0002E4D0B50F3
:109C80004A591B1B121B1202120A1B0203321B0A27
:109C90009A42A3D94B590B502F200138C046C046D9
:109CA000C046C046C046C046C046C046C046C04684
:109CB000C046C046F1D180218023224A89025B0040
:109CC000D1508BE78026D1277602BF00C651403F96
:109CD000C651C02280271B4EBF025200B7503760CA
:109CE000012606602F200138C046C046C046C04647
:109CF000C046C046C046C046C046C046C046C04634
:109D0000F1D12E70B0E7FFF713FD67E75A46084B15
:109D10001A605DE7BA46002C01D00549086051463B
:109D2000521A1A600293012305933EE6D2240020C2
:109D3000C02400200010014004050000DC240020A5
:109D4000BC24002000E100E0F8B54F464646C0B410
:109D50000326350080460F00140099461540072061
:109D6000002D03D00CBC90469946F8BD002A44D083
:109D7000FFF7DEFC4A46224B80201A602200214B6E
:109D800018321E70204B62601C607B00DB19DB0008
:109D9000D218E260D318C022636125706570A77085
:109DA00025726572A77225746574A774C524FF2196
:109DB000164B40031D60164B52001D70154BA4003E
:109DC0001D70154B98501A598A433F390A431A514E
:109DD000A122186040461149D2008850C42080005A
:109DE0001C580F4A2240C024240222431A500D4B13
:109DF0000020CA580C4B1A60B4E7034B1A60B1E755
:109E0000C4240020C8240020CC240020C02400202A
:109E1000D0240020D124002000E100E00010014007
:109E2000FF00FFFF04050000BC24002010B50B4B11
:109E30001B68002B0BD0002A07D0002805D0036830
:109E400008201C7C002C04D010BD0720FCE7082053
:109E5000FAE759745A610020F6E7C046CC24002086
:109E6000F0B5474680B43A4B1C68002C08D0002857
:109E700006D00723042905D8180004BC9046F0BD7D
:109E80000823F9E74369002BFAD0437C012B48D023
:109E900000239C462F4B10255B68DB05DB0D26D18C
:109EA000641963785F1CFEB2A778B7423DD027786B
:109EB000B74238D05D00ED186368ED009846454420
:109EC0000423002DD8D0033B2B706860224B23481D
:109ED000C358E960AB60634680212B6180236A61CF
:109EE0001F4A5B0049036670D1500023C4E7103B52
:109EF000DFB27DB2002D1ADB0326AD08184FC03546
:109F0000AD00ED593340DF002B00FB409B0933408F
:109F1000DBB20025012BC3D00835032BC0D0083598
:109F2000BEE78C46B6E70423A6E70026BFE70F236B
:109F30000C4D3B40A8460325083B9B089B0043442F
:109F40005B682F40FF00FB409B092B40E0E7C046C9
:109F5000CC24002000ED00E00405000000100140CA
:109F600000E100E018ED00E010B52F4A0300116891
:109F7000082000292AD0002B28D05A69002A25D091
:109F800000221A74294A08305268D205D20D1ED117
:109F900009184A788878541CE4B2A04232D0087874
:109FA000A0422DD0500082184868D20084466244F6
:109FB0000420002A0AD00238107053604C708023AD
:109FC000802100201A4A49035B00D15010BD103A8D
:109FD000D4B260B2002817DB8008154CC030800076
:109FE000005903242240D200D04082092240D2B23C
:109FF0000020012ACCD00830032AC9D00830C7E796
:10A000000420E3E70024CAE70F220A4822408446DE
:10A010000320083A92089200624452680440E40027
:10A02000E24092090240E2E7CC24002000ED00E08B
:10A0300000E100E018ED00E0F0B54E465746454619
:10A04000E0B4214B1978994600292AD01F4B0025EE
:10A0500098461F4B1F4F01269A4603E00135EDB28B
:10A060008D421ED243461B6832009C46EC0064447D
:10A0700020783B6882401342F0D093433B6000F06D
:10A0800013FD330022785146934009680B400100CC
:10A0900091408B420AD04B4601351978EDB28D4282
:10A0A000E0D31CBC90469946A246F0BD6368002BE5
:10A0B000F1D0617801394C424C41211A4C424C415B
:10A0C0001000E1B29847E6E7E8240020E4240020ED
:10A0D0000C25002010250020F8B5124D070028009F
:10A0E000FFF742FF002807D10124BC400E4E336821
:10A0F000234202D0A3433360F8BD380000F0D4FC03
:10A100000A4A136800280BD02343136033680022E7
:10A110001C43074B280019683460FFF7A1FEEBE7EA
:10A12000A343F2E7EC240020102500200C2500209A
:10A13000E0240020F0B54F464646C0B414000700A6
:10A1400083B00E000720042A04D803B00CBC90464C
:10A150009946F0BD00F09AFB00282FD01A4B1B4AFD
:10A160001F601B4B751E1E701A4BEDB21C60002346
:10A170001360194A1360002E1AD0184B01AC99468F
:10A1800003230026984600E01D004246EB00FB1822
:10A190002270A670E6709A781878627021004A469C
:10A1A00000F07EFB0028D0D16B1EDBB2002DEBD17E
:10A1B0000B4A00210B48FFF739FEC6E700F032FBDF
:10A1C0000028CBD0C1E7C046E42400200C250020A5
:10A1D000E8240020E024002010250020D9A0010060
:10A1E00039A00100F8D1010070B5094D2B78002B82
:10A1F0000BD00024074E3268E300985C012100F088
:10A20000FFFB2B780134A342F5D8002070BDC04677
:10A21000E8240020E424002030B5047885B0012C27
:10A2200019D0022C34D0002C01D005B030BD254D02
:10A23000254C29002000FFF75BFA002823D0A268F4
:10A24000E3689A42F1D1032302AA13701F4B100056
:10A250001B689847E9E743681D4D19782800FFF708
:10A2600033FA00281ED1AA68EB689B1A012B21D073
:10A27000AA68EB689B1AAA889342D6D80121154890
:10A2800000F08CF9D1E70121280000F02DF9D6E784
:10A2900002AB1C70C36802A8019303930B4B1B68AD
:10A2A0009847C2E702AB1C70084B03901B6802A8DA
:10A2B0009847DDE702AB1870044B02A81B6898476B
:10A2C000D6E7C046142500202025002018250020B0
:10A2D000302500201C250020F0B51E00214B050074
:10A2E00089B00C001A600720002906D08A881E4811
:10A2F0000968FFF7D5F9002801D009B0F0BDA2899F
:10A30000A1681A48FFF7CCF90028F6D16A46184B25
:10A31000684692CB92C292CB92C212CB12C2AB6869
:10A3200006932B7906775A1E934103756B790E229B
:10A33000591E8B415B421A404275EB780293AB7811
:10A3400003932B7801936B7800930A4900F044F84B
:10A350000028D2D100F09AF90121074800F01EF937
:10A36000CBE7C046182500203025002020250020FE
:10A37000FCD1010019A201001C25002070B50A4C77
:10A380000500A168A288E3685B1A9A4204D02900FC
:10A390002000FFF7ADF970BD0121044800F0FEF880
:10A3A0000028F4D00520F6E7302500201C250020E9
:10A3B00010B5040006480121047000F095F811283A
:10A3C00000D010BD21000348FFF77EF9F9E7C04631
:10A3D0004025002020250020F0B557464E46454632
:10A3E000E0B4394C0300A27D0820002A04D01CBC34
:10A3F00090469946A246F0BD002B62D01A68A02074
:10A400000325C132FF32C005920015500122AA4631
:10A410001D68AA40A125ED004251A94600255A68B1
:10A42000AC46C132FF32920015509E69274A284D32
:10A4300056515D7DA84646461D7D3543254E9551B6
:10A440005D681E68A846244D56514646234D565118
:10A450001D7D012D1AD19E683700E0267600B0469A
:10A460004744BE0067463750C137FF37B8465746A6
:10A47000DE684644B6003750DE68B5404E4685512A
:10A48000D8689D689051A220C00015501A6961607B
:10A490002260002908D0197FC12311480B4A9B0074
:10A4A000D050022000F0E2FCA0230421074ADB0088
:10A4B000D15000230122E374A374A27563750020B8
:10A4C00095E70922074B9AE7442500200020004029
:10A4D000240500006C0500000C05000014050000B8
:10A4E000800002001CD20100F0B5264A0400937CD3
:10A4F0001120002B00D0F0BD012591742248234982
:10A50000138294600B6005600B60138AE05C138A11
:10A510001F4C01339BB213821E4BE0505068002841
:10A5200001D00020E7E7002726001D000130FF30A2
:10A53000947C138A9C4203D812E0138A834202D08F
:10A540000B68002BF9D0138A8342F2D00F60138A74
:10A550009468E45C138A01339BB213827451E7E779
:10A560008023118A5B0099420AD008490B68002BAE
:10A57000FCD001210020084B196000239374BAE736
:10A580000F20FAE744250020082000401C2100404D
:10A59000002000401C0500000C200040F0B547469C
:10A5A00080B4344B1122DC7C002C03D0100004BC9E
:10A5B0009046F0BD5A7DD974D8601C75002A0AD027
:10A5C0005A68002A0FD08121C1232B4A89009B00A1
:10A5D000D1500022EAE729490A6029490A6001218D
:10A5E000254A1160ECE7244A244E9446A322D20067
:10A5F0009046234C234D316820682A6800280BD1EF
:10A60000002A28D10029F6D000221E490A601B49E1
:10A610000A60DA740332C9E70029F5D1002A1CD197
:10A62000474660462260197DC059DF687854197D1D
:10A63000D87C0131C9B21975197D8842DBD811491E
:10A640000A600E490A60DA745B7D002B0DD001218F
:10A65000094B1960AAE70029D6D1002209490A60EE
:10A6600006490A60DA740F32A0E70121064B19602F
:10A670009CE7C046442500200020004024210040E3
:10A68000082100404421004004200040064A537D38
:10A69000002B07D105490B6005490B6005490133C3
:10A6A0000B6053757047C0464425002024210040AC
:10A6B0000821004000200040C12210B5514B9200FB
:10A6C0009A5884B092054CD54F4A1168002948D059
:10A6D000002111608121C2228900920099504B4BC8
:10A6E0005A7D002A02D10121494A1160022269469D
:10A6F0000A7090214348C90042584250694603926B
:10A70000DA7C68460A72DA68196801920022DA7403
:10A710005B6898473F4A1368002B10D03B4B188A60
:10A72000997C814251D9002111601A8A9968895C0B
:10A730001A8A013292B21A82374B324AD150374BC1
:10A740001A68002A0BD000221A60304B5A7D002A6A
:10A7500002D001212B4A1160DA7C002A44D104B0D6
:10A7600010BDC123274A9B00D3585B07D2D52C4B81
:10A7700019680029CED00021A3241960234BE400DE
:10A78000187DD96812590A541A7DD87C0132D2B288
:10A790001A751A7D9042BDD15A7D002A02D101203E
:10A7A0001B4A10608124C2221648A40092008450E3
:10A7B0006C461A7D01202272002220700191DA7409
:10A7C000196868465B689847A4E700201060002974
:10A7D000B5D06A46107011729A689874196801921F
:10A7E0005B6868469847AAE768461A7D01210272AD
:10A7F000DA680170019200221968DA745B68984780
:10A80000ADE7C04600200040242100404425002040
:10A81000042000401C2100401C0500004421004091
:10A820000821004070B54425164C0820635D002BBC
:10A8300000D070BD4022FF21013BA3540132A1543E
:10A840000132A354236201326362A362E362236391
:10A850006363A363E363FC390238A354236063603A
:10A86000A360E36023616361A361E36100F0FEFA2A
:10A870008021C123044A9B000906D15001230020F6
:10A880006355D6E75C250020006000404423034A5E
:10A89000D05C431E9841C0B27047C0465C25002082
:10A8A000F0B5474680B4534C0825231820331E7852
:10A8B0007F2E03D8280004BC9046F0BDCD78AC466E
:10A8C000002D36D02568013500D188E0042300260C
:10A8D0009846731C9D006759013733D0B31C9845C7
:10A8E00025D99D00675901372CD0F31C98451ED9F6
:10A8F0009D006759013725D0331D984517D99D0014
:10A90000675901371ED0731D984510D99D006759AE
:10A91000013717D0B31D984509D99D0067590137F4
:10A9200010D00736B04502D9E369013308D00425B9
:10A93000C0E72569013557D0082304269846C8E7A3
:10A9400007231C25625162462718DEB220373E706D
:10A95000002A02D1E3183C3318708B78002B15D1F4
:10A960000300A0254A78C133FF3392009B00ED0518
:10A970005A51CB78002B15D176B2A4193C340B7800
:10A9800022789B0113432370002593E7A022D20570
:10A990009446E025022783006344ED005A59BA43E8
:10A9A0005A51E6E7144A0B789446A22176B2B600D3
:10A9B0006644C9007458114A000222407250F822BD
:10A9C000520110400500C022180403002800920222
:10A9D0007458134018432043705000256AE700253F
:10A9E00022601D700026B8E7042522611D702E002C
:10A9F0002B00AFE75C25002000600040FFE0FCFF7B
:10AA0000F0B5264D2C182034227853B2032B18DDD4
:10AA1000EB183C331B789B09032B32D0012B39D028
:10AA2000C0218902A023DB059C46E023800060440E
:10AA3000DB00C4581A4A2240C250C2580A43C250CE
:10AA4000F0BD032AFCD81748A227844601269A00A5
:10AA50006244FF00D0593043D0511A0060460027AD
:10AA60004032920092B217500029E9D00022A2563B
:10AA700092005259002AE3D09E40C1239B00C65049
:10AA8000DEE7A223A022DB00D205D25801238340B7
:10AA90001A42C5D180218902C4E7C0465C25002046
:10AAA000FFFFFCFF00600040A222A0210300D200B3
:10AAB000C9058858D840012318407047F0B557465B
:10AAC0004E464546E0B4D44A00241368012B00D119
:10AAD000C1E0D24B1A68012A00D1CAE0D04B1A68F3
:10AAE000012A00D1D5E0CF4B1A68012A00D1E0E05D
:10AAF000CD4B00251A68012A00D1EBE023070BD0CB
:10AB0000E30700D5FCE0A30700D508E1630700D503
:10AB100013E1230700D5E7E0002C04DB1CBC9046C2
:10AB20009946A246F0BD4023C04CE15C4BB20133D4
:10AB30001ED0C9B2C02308009843231820331B78C5
:10AB40005BB29B001E59002E12D0A0230127DB050B
:10AB50009C46E023874082006244DB00D358890989
:10AB60009B039B0F3D4200D10FE1022B00D173E10B
:10AB70004123E15C4BB201331ED0C9B2C0230800AF
:10AB80009843231820331B785BB29B001E59002E7C
:10AB900012D0A0230127DB059C46E02387408200DA
:10ABA0006244DB00D35889099B039B0F3D4200D1CF
:10ABB000D3E0022B00D143E14223E15C4BB20133ED
:10ABC0001ED0C9B2C02308009843231820331B7835
:10ABD0005BB29B001E59002E12D0A0230127DB057B
:10ABE0009C46E023874082006244DB00D3588909F9
:10ABF0009B039B0F3D4200D1F6E0022B00D125E1E3
:10AC00004323E15C4BB2013300D187E7C9B2C023D3
:10AC100008009843231820331B785BB29B001E5911
:10AC2000002E00D17AE7A0230124DB059C46E02317
:10AC3000844082006244DB00D35889099B039B0F48
:10AC4000254200D1BDE0022B00D067E7032900D1E7
:10AC500008E1B04762E7C1217548890041580B42BD
:10AC600000D136E76D4B14601A680134012A00D018
:10AC700034E7C1226E499200895802220A4200D16B
:10AC80002CE700211960664B14431A68012A00D092
:10AC900029E7C12266499200895804220A4200D15C
:10ACA00021E7002119605F4B14431A68012A00D084
:10ACB0001EE7C1225E499200895808220A4200D14B
:10ACC00016E700211960584B14431A680025012A21
:10ACD00000D013E71D6080231B061C43A022A22383
:10ACE000D205DB00D55809E7514A524BD058D1580C
:10ACF0004E4B8903C004890FC00EDB6898470BE7F1
:10AD0000A2234B4ADB00D058D158484B8903C004DA
:10AD10001B68890FC00E9847A30700D4F6E6464B80
:10AD2000434AD058D158414B8903C0045B68890F0E
:10AD3000C00E9847630700D4EBE6A3233C4ADB0030
:10AD4000D058D158394B8903C0049B68890FC00E75
:10AD50009847230700D4DFE6C6E7032B00D02BE794
:10AD6000032910D180239B029C46E023DB009946F7
:10AD7000324FD3581F404B46D750D75863463B43BA
:10AD80001F004B46D750B04716E7032B00D0EFE625
:10AD9000032914D180239B029A46E023DB00D75875
:10ADA0009946B846254FBC46474663461F403B0080
:10ADB0004F46D351D35957461F434B46D750B04700
:10ADC000D6E6032B00D0A9E6032900D041E780276F
:10ADD000BF02E023DB00D458184D2540D550D4588D
:10ADE0003C43D450B04799E6032B00D008E7032931
:10ADF00010D180239B029C46E023DB0099460F4F35
:10AE0000D3581F404B46D750D75863463B431F008B
:10AE10004B46D750B047F3E6006100400461004064
:10AE2000086100400C6100407C6100405C2500200E
:10AE3000006000401C05000014050000FFFFFCFF3F
:10AE40000329A0D1C0239B029C468EE70329E1D1B0
:10AE5000C0239B029C46CFE70329B0D1C0239B02AD
:10AE60009A469AE7C027BF02B3E7C046F0B500286C
:10AE70001EDBFF261A4B37009C4603238208C025A1
:10AE8000C0B20340DB0089019F40314099409200ED
:10AE90006244AD005459BC43214351511F23C0218A
:10AEA00018401E3B83400E4A490053501360F0BDCA
:10AEB000FF250C4A2E00944603220F23C0B2024005
:10AEC000D20089019640294091400340083B9B08ED
:10AED0009B006344DC69B4432143D961DEE7C0468B
:10AEE00000E100E000ED00E036DF704737DF70473B
:10AEF000437900215A00D3180F4ADB00D31882226D
:10AF000010B504685200A1505A8242790B49920050
:10AF10005258002A0AD0C22201685C6992008C5003
:10AF200002225A61C12301689B00CA5001230268B2
:10AF300013620268536110BDB0250020A8250020CF
:10AF400043795A00D318034ADB00D31801229A71BF
:10AF50007047C046B0250020F0B54D4644465F46D8
:10AF60005646F0B487B0994610AB1B780091019318
:10AF700011AB1E780023904604AA4479D371AB4BE1
:10AF800005005B680427DB05DB0D6DD104ABD81D24
:10AF9000FFF7AAFF022800D18DE0002800D09BE037
:10AFA000A34B9A4663009B461B19DB0053449A78D7
:10AFB000002A47D101329A70012F00D076E05B461B
:10AFC0006A461B191278DB005344DA714A469A81AB
:10AFD00042469A600022DA816A4612791E715A71DD
:10AFE00000229A7101235E406B7992499C465B0076
:10AFF00098466344DB0053445A788F4B92008F5835
:10B000009B58002F0FD01A78B24256D00833002137
:10B0100006E01A000833180008380078B0424DD016
:10B020000131B942F5D163466246844992005258D3
:10B030000020002A5AD007B03CBC90469946A24650
:10B04000AB46F0BD01230293012F2DD062B604ABB5
:10B05000D879FFF74BFF022302009A4341D1029BAC
:10B060001120002BE7D1AAE7103BD9B24AB2002A3F
:10B0700000DABAE0032092087149C03292005258B7
:10B080000340D9001300CB409B090340DFB2012BE2
:10B0900000D07BE7664A9246620093461219D200BE
:10B0A00052449178002904D01120C4E70023029370
:10B0B000CCE7937083E772B672E71A0043466344A5
:10B0C000DB005178534459705368002BABD02800F3
:10B0D00098476B799C46A7E700220021FEF71CFBEE
:10B0E0005EE700220021FEF717FBB8E75C44E200B0
:10B0F00052441679039471424E4100218B4611004F
:10B100001232029252468A4601922A000236009575
:10B1100014685A00D318019ADB00944663445B8A92
:10B12000922598460021A0446D00464FB44601E0A8
:10B13000002B43D143461E686359013118008F42EA
:10B140009241431E984153420343002EF0D066467D
:10B15000002B33D15A46029B36491B88E3181A60EC
:10B16000009B019A5B79944698465B00994643445C
:10B17000DB0063445A78304B92008C589B58002C6B
:10B180000FD01A78B24221D00833002106E01A000D
:10B190000833180008380078B04218D00131A142B5
:10B1A000F5D153469B79002B2FD15246D1899289F4
:10B1B000914233D2009B009A5B79A9E792235A46C9
:10B1C0005B00E250009B05261C68C3E71A0001994A
:10B1D0004B468C464344DB005178634459705368B6
:10B1E000002BDED000989847DBE70F23164A0B4070
:10B1F00094460322083B9B089B0063445B68114014
:10B20000C900CB409B09134040E7019B03209A46AD
:10B21000039BDC0000235444A3700CE7019A002038
:10B220009246039AD2005244937004E700ED00E086
:10B23000B02500203CD20100C8D20100A825002082
:10B2400000E100E0FE0F000018ED00E0F8B54F4609
:10B250004646A321C0B44379424D5A00D318040096
:10B26000DB000068EB18C900DA89415898688154FE
:10B27000013292B2DA819B89934203D80CBC90468A
:10B280009946F8BD80220320216892008B58667988
:10B29000834377008B50BB19DB00EB18D989988961
:10B2A00001310122814210D0802321689B00C858BF
:10B2B000BE190243CA502022F600AD192B7C2A7415
:10B2C0002268D31801221A60D8E759790029EBD1F6
:10B2D00004322068FF3281505A8262799100904690
:10B2E000214A8A58002A0CD0C2222168586992004B
:10B2F000885002225A61C12321689B00CA50637999
:10B30000984643465B0099464344DB00EB185A7865
:10B3100016499200164B5058D35800280FD01A786F
:10B32000042A0ED00833002206E09C460833190098
:10B3300008390978042905D001328242F5D1022268
:10B34000B2E79C464B4662464344DB005278EB181A
:10B350005A7063465B68002BF1D0200098470222A8
:10B36000A2E7C046B0250020A82500203CD201005D
:10B37000C8D20100F8B54F464646C0B48022447991
:10B3800001680500032092008B58670083438B50AF
:10B39000344E3B19DB00F318D98998890131012219
:10B3A000814213D0802329689B00C8583C1902436E
:10B3B000CA502022E4003419237C22742A68D3184E
:10B3C00001221A600CBC90469946F8BD59790029B3
:10B3D000E8D104322868FF3281505A826A7991009C
:10B3E0009046214A8A58002A0CD0C22229685869FE
:10B3F0009200885002225A61C12329689B00CA50DA
:10B400006B79984643465B0099464344DB00F3184A
:10B410005A7816499200164B5058D35800280FD02E
:10B420001A78042A0ED00833002206E09C4608331E
:10B43000190008390978042905D001328242F5D172
:10B440000222AFE79C464B4662464344DB005278FB
:10B45000F3185A7063465B68002BF1D028009847B8
:10B4600002229FE7B0250020A82500203CD2010041
:10B47000C8D20100F8B54F464646C0B443793F4EA6
:10B480005A00D318DB00F318DA899B6801689A5CCC
:10B490003B4B0500CA50802244790168032092008A
:10B4A0008B58670083438B503B19DB00F318D98915
:10B4B000988901310122814213D0802329689B00A1
:10B4C000C8583C190243CA502022E4003419237C96
:10B4D00022742A68D31801221A600CBC904699463F
:10B4E000F8BD59790029E8D104322868FF3281502B
:10B4F0005A826A7991009046224A8A58002A0CD0D2
:10B50000C222296858699200885002225A61C123D8
:10B5100029689B00CA506B79984643465B00994660
:10B520004344DB00F3185A7817499200174B5058E0
:10B53000D35800280FD01A78042A0ED008330022DE
:10B5400006E09C460833190008390978042905D01B
:10B5500001328242F5D10222AFE79C464B46624659
:10B560004344DB005278F3185A7063465B68002B43
:10B57000F1D02800984702229FE7C046B02500205E
:10B580001C050000A82500203CD20100C8D2010003
:10B59000F8B546464F46C0B443794D4E5A00D318CD
:10B5A000B122DB00F3180500D9790068D200815080
:10B5B00001212A68116284220021286852008150EA
:10B5C0005A82444A1974904641466C79A2008A58BE
:10B5D000002A0BD0C2225C69296892008C50042298
:10B5E0005A61C12329689B00CA506C7980220327C5
:10B5F000296892008B58BB4367008B503B19DB00D6
:10B60000F3189A89D989944601310122614513D0F2
:10B61000802329689B00C8583C190243CA50202245
:10B62000E4003419237C22742A68D31801221A609A
:10B630000CBC90469946F8BD59790029E8D10432EE
:10B640002868FF32815041465A826A7994469200B6
:10B650008A58002A0CD0C222296858699200885062
:10B6600002225A61C12329689B00CA506B799C460B
:10B6700063465B0099466344DB00F3185A78164929
:10B680009200164B5058D35800280FD01A78042A2D
:10B690000ED00833002206E0984608331900083916
:10B6A0000978042905D001328242F5D10222AFE7A0
:10B6B00098464B4642466344DB005278F3185A7072
:10B6C00043465B68002BF1D02800984702229FE791
:10B6D000B0250020A82500203CD20100C8D20100DE
:10B6E000F8B546464F46C0B44379534D5A00D31877
:10B6F000B122DB00EB180400D9790068D200815038
:10B70000012122681162082200211A742068153272
:10B71000FF32815049495A828846404662799100F9
:10B72000415800290BD0C22221685E6992008E50D8
:10B7300080225A61C12321689B00CA50627953005C
:10B740009A18D200AA18D38992682168D25C3C4B1F
:10B750000327CA508022216892008B586679BB4328
:10B7600077008B50BB19DB00EB189A89D989944676
:10B7700001310122614513D0802321689B00C85804
:10B780000243CA502021BB19DB00EB181A7C197444
:10B7900023689B1801221A600CBC90469946F8BD9C
:10B7A00059790029E8D104322068FF32815041469E
:10B7B0005A826279944692008A58002A0CD0C2229A
:10B7C000216858699200885002225A61C123216879
:10B7D0009B00CA5063799C4663465B00994663446C
:10B7E000DB00EB185A7817499200174B5058D35882
:10B7F00000280FD01A78042A0ED00833002206E061
:10B8000098460833190008390978042905D001320F
:10B810008242F5D10222AFE798464B464246634446
:10B82000DB005278EB185A7043465B68002BF1D06E
:10B830002000984702229FE7B0250020A82500207D
:10B840001C0500003CD20100C8D20100F8B54F46EB
:10B850004646C0B44379424D5A00D318DB00EB187A
:10B86000DA899989013292B20400DA81914203D8CF
:10B870000CBC90469946F8BD9B6801689A5C394BB0
:10B88000CA50802246790168032092008B587700C5
:10B8900083438B50BB19DB00EB18D98998890131A0
:10B8A0000122814210D0802321689B00C858BE1914
:10B8B0000243CA502022F600AD192B7C2A7422685C
:10B8C000D31801221A60D3E759790029EBD1043249
:10B8D0002068FF3281505A82627991009046224A54
:10B8E0008A58002A0CD0C2222168586992008850D8
:10B8F00002225A61C12321689B00CA50637998468D
:10B9000043465B0099464344DB00EB185A781749DD
:10B910009200174B5058D35800280FD01A78042A99
:10B920000ED00833002206E09C460833190008397F
:10B930000978042905D001328242F5D10222B2E70A
:10B940009C464B4662464344DB005278EB185A70E3
:10B9500063465B68002BF1D0200098470222A2E7E3
:10B96000B02500201C050000A82500203CD20100C5
:10B97000C8D20100F0B557464E464546E0B444797A
:10B9800006006000684F0019C0003D5C0820002DD3
:10B9900004D01CBC90469946A246F0BD002900D1B7
:10B9A000BDE06248A4000251614A8246A350614B47
:10B9B0006148E650A0230A68DB05C132FF329200DD
:10B9C000D0504A68C132FF329200D050012210009C
:10B9D0000C68A040A124E40018514868A4468240A5
:10B9E0001A510A685548C132FF329200D0504A6855
:10B9F000C132FF329200D05004200138C046C04608
:10BA0000C046C046C046C046C046C046C046C04606
:10BA1000C046C046F1D1A222D2009046484A002535
:10BA200001249146424648689A58C240144200D0C8
:10BA300072E022000868824048461A50042001380B
:10BA4000C046C046C046C046C046C046C046C046C6
:10BA5000C046C046C046C046F1D1220008688240B8
:10BA600060461A5004200138C046C046C046C04651
:10BA7000C046C046C046C046C046C046C046C04696
:10BA8000F1D10135092DCDD1486801231C00A02238
:10BA900084402B48D205145004200138C046C046CB
:10BAA000C046C046C046C046C046C046C046C04666
:10BAB000C046C046F1D148688340A120C000135061
:10BAC000A0220B681C48C133FF33D2059B0098505D
:10BAD0004B68C133FF339B00985032688868194B1C
:10BAE000D050A12233680C68D20048689C50144A98
:10BAF0009850504673799A008258002A05D0042045
:10BB0000097B3056FFF7B2F973795A00D318012236
:10BB1000DB00FA5400203CE7002DB6D1D0E70A48FC
:10BB2000210141183DE7C046B0250020A82500208E
:10BB3000AC250020A42500200C0600000D06000006
:10BB40000C0500002405000068D2010082220023B9
:10BB5000016852008B50016804328B500168143226
:10BB60008B50016808328B5043790D4A9B009B58DB
:10BB7000002B05D08022C123016892009B00CA508F
:10BB8000A02305220168DB00CA5042790549530011
:10BB90009A18D30002225A540022CB185A707047C8
:10BBA000A8250020B025002030B5002583B006ACC4
:10BBB000247801950094FFF7CFF903B030BDC0465B
:10BBC000F0B54746424B92219C4680B4414E490015
:10BBD000728A58586244146800225A5008395A50E0
:10BBE00014395A50043986B05A50002832D1002CEA
:10BBF0002CD03479631E9C4103231C1B2BE01F00B7
:10BC000060447B78C000301843707B68002B01D003
:10BC100040469847B379002B41D000230222B370ED
:10BC200002AB1A70B3682C490393F3892848049334
:10BC30004358435002211A4200D1023102AB19731A
:10BC4000264B02A81968264B1B68984706B004BC0F
:10BC50009046F0BD0524234B23491B68587998462C
:10BC600043009C461B18DB00F3185A781F4B9200C8
:10BC70005558D358002DCDD01A78A242BFD00833E2
:10BC8000002206E01F000833190008390978A14294
:10BC9000B6D00132AA42F5D1B379002BBDD1F489D7
:10BCA000B289A242D2D8B3701022002102A8FCF7B8
:10BCB000D9FA337902AA1370B368049401930393F9
:10BCC000064B10001968064B1B689847BEE7C04634
:10BCD00000300040B0250020C4040000AC25002046
:10BCE000A8250020A42500203CD20100C8D20100D4
:10BCF0002EDF704751DF704710DF704761DF7047FC
:10BD000010B508001100FCF7FDFF10BDF0B5574657
:10BD10004E464546E0B4344B344E1D6899466B425E
:10BD20005D41334BEDB21C68984663425C4182B082
:10BD3000E4B2304FB246002D13D0002C40D13C6805
:10BD4000338801A920000B80FFF7D8FF052837D0E2
:10BD500000282AD000220021FDF7DEFC0024002D5F
:10BD6000EBD101A8FFF7C6FF05280DD0002822D08F
:10BD700000220021FDF7D0FC002C27D0012401A8CF
:10BD8000FFF7B8FF0528F1D1002C19D153466A46B8
:10BD90001B8801A99380174B1C682000FFF7AEFF9A
:10BDA00005280DD001250028D4D1434620001B686A
:10BDB00098470024D3E74B4601981B689847DBE778
:10BDC00002B01CBC90469946A246F0BD6A46074B9D
:10BDD00001A91B889380074B1C682000FFF78EFF8A
:10BDE0000528B5D10124CAE7D0250020CA250020A6
:10BDF000D4250020CC25002070B5040007200029A0
:10BE000001D08D0700D070BD0948016009492000AC
:10BE10000A80094A09491360FFF76EFF0028F2D132
:10BE20000122074B16301A70FFF762FFEBE7C0469E
:10BE3000CC250020CA250020D825002001BD010006
:10BE4000C825002010B50A4B1B68002B08D0984766
:10BE5000002800D110BD00220021FDF75DFCF9E7AC
:10BE6000044B1B78002BF5D0FFF750FFF2E7C046DC
:10BE7000D8250020C825002003210A4802680A436B
:10BE80000260094802680A4302600849084A094BEF
:10BE90009B1A03DD043BC858D050FBDC06488047A2
:10BEA00006480047240500405405004098D301008F
:10BEB0000020002088200020DD9501007581010010
:10BEC000FEE7FEE7FEE7FEE7FEE7FEE700224308A7
:10BED0008B4274D303098B425FD3030A8B4244D352
:10BEE000030B8B4228D3030C8B420DD3FF22090294
:10BEF00012BA030C8B4202D31212090265D0030B53
:10BF00008B4219D300E0090AC30B8B4201D3CB0348
:10BF1000C01A5241830B8B4201D38B03C01A52418A
:10BF2000430B8B4201D34B03C01A5241030B8B428C
:10BF300001D30B03C01A5241C30A8B4201D3CB0277
:10BF4000C01A5241830A8B4201D38B02C01A52415C
:10BF5000430A8B4201D34B02C01A5241030A8B425F
:10BF600001D30B02C01A5241CDD2C3098B4201D377
:10BF7000CB01C01A524183098B4201D38B01C01AF5
:10BF8000524143098B4201D34B01C01A524103096C
:10BF90008B4201D30B01C01A5241C3088B4201D31B
:10BFA000CB00C01A524183088B4201D38B00C01AC8
:10BFB000524143088B4201D34B00C01A5241411AEF
:10BFC00000D20146524110467047FFE701B50020FC
:10BFD00000F0F0F802BDC0460029F7D076E77047C0
:10BFE00003460B437FD4002243088B4274D30309DA
:10BFF0008B425FD3030A8B4244D3030B8B4228D37B
:10C00000030C8B420DD3FF22090212BA030C8B42A0
:10C0100002D31212090265D0030B8B4219D300E040
:10C02000090AC30B8B4201D3CB03C01A5241830BC5
:10C030008B4201D38B03C01A5241430B8B4201D375
:10C040004B03C01A5241030B8B4201D30B03C01A9E
:10C050005241C30A8B4201D3CB02C01A5241830A18
:10C060008B4201D38B02C01A5241430A8B4201D347
:10C070004B02C01A5241030A8B4201D30B02C01A71
:10C080005241CDD2C3098B4201D3CB01C01A5241D8
:10C0900083098B4201D38B01C01A524143098B4261
:10C0A00001D34B01C01A524103098B4201D30B014A
:10C0B000C01A5241C3088B4201D3CB00C01A52416F
:10C0C00083088B4201D38B00C01A524143088B4234
:10C0D00001D34B00C01A5241411A00D201465241CD
:10C0E000104670475DE0CA0F00D04942031000D3EC
:10C0F0004042534000229C4603098B422DD3030A41
:10C100008B4212D3FC22890112BA030A8B420CD350
:10C11000890192118B4208D3890192118B4204D379
:10C1200089013AD0921100E08909C3098B4201D3F9
:10C13000CB01C01A524183098B4201D38B01C01A33
:10C14000524143098B4201D34B01C01A52410309AA
:10C150008B4201D30B01C01A5241C3088B4201D359
:10C16000CB00C01A524183088B4201D38B00C01A06
:10C170005241D9D243088B4201D34B00C01A5241DD
:10C18000411A00D20146634652415B10104601D36A
:10C190004042002B00D54942704763465B1000D3F4
:10C1A000404201B5002000F005F802BD0029F8D09A
:10C1B00016E770477047C046002310B59A4203D077
:10C1C000CC5CC4540133F9E710BD00000FB40B4B35
:10C1D00013B51C68002C05D0A369002B02D12000E8
:10C1E00000F050F805AB049AA1682000019300F01C
:10C1F0005BF916BC08BC04B01847C046602000209C
:10C2000010B5024900F0B0F810BDC046ADCD010038
:10C21000002310B50400036043608360818143669E
:10C22000C281036143618361190008225C30FCF71D
:10C2300019F8054B24626362044BA362044BE3626A
:10C24000044B236310BDC04625CA01004DCA01003E
:10C2500085CA0100B1CA010070B568254B1E5D4357
:10C260000E002900743100F0A1F8041E08D000214E
:10C270002A00016046600C30A0606832FBF7F2FFD4
:10C28000200070BD836913B50400002B28D183649E
:10C29000C3640365134B144A1B688262019398427E
:10C2A00001D101238361200000F020F860602000AC
:10C2B00000F01CF8A060200000F018F80022E060F8
:10C2C00004216068FFF7A4FF01220921A068FFF79D
:10C2D0009FFF02221221E068FFF79AFF0123A3616A
:10C2E00013BDC0465CD0010001C20100F8B51D4B72
:10C2F00006001D68AB69002B02D12800FFF7C2FFC2
:10C300004835AC686B68013B05D40C22A75E002F52
:10C3100010D06834F7E72B68002B01D02D68F0E7C8
:10C3200004213000FFF798FF28600028F6D10C2385
:10C33000336016E0012320005B42E3810233A381D6
:10C3400067662760A760676027616761A7615C30E7
:10C3500008223900FBF786FF20006763A763A76404
:10C36000E764F8BD5CD00100F7B5040007000026C3
:10C3700001914834002C16D06368A5680093009B97
:10C38000013B00930DD4AB89012B08D90E22AB5E83
:10C39000013304D029003800019B984706436835D3
:10C3A000EDE72468E6E73000FEBD0000032370B52A
:10C3B000CD1C9D43083506000C2D01D20C2505E04F
:10C3C000002D03DA0C230020336040E0A942F9D8A5
:10C3D0001F4B1C681A002100002913D00B685B1B3F
:10C3E0000DD40B2B02D90B60CC181EE08C4202D16D
:10C3F000636813601AE04B6863600C0016E00C0081
:10C400004968E9E7134C2368002B03D1300000F0A2
:10C41000F7FA20602900300000F0F2FA431CD1D076
:10C420000323C41C9C43A0420AD12560200007229C
:10C430000B30231D9043C31A09D05A42E25006E044
:10C44000211A300000F0DCFA431CEED1BAE770BDCF
:10C45000E0250020DC250020936810B5013B9360A7
:10C46000002B05DA9469A34208DBCBB20A2B05D076
:10C470001368581C10601970C8B201E000F01EFB70
:10C4800010BDF8B506000F001400D518AC4208D056
:10C4900021783A003000FFF7DFFF0134431CF5D16B
:10C4A00000E00020F8BD0000F0B59FB006000F00CE
:10C4B00002920593002804D08369002B01D1FFF775
:10C4C000E1FE7F4B9F4201D1776808E07D4B9F42A0
:10C4D00001D1B76803E07C4B9F4200D1F768BB896C
:10C4E0001B070AD53B69002B07D0002306AD6B6103
:10C4F00020336B761033AB763DE03900300000F02E
:10C5000049FB0028F1D001204042D6E0059A111DD8
:10C5100012680591002A00DA7FE00992013423783D
:10C520002E2B00D18DE021780322684800F0D0FC4A
:10C53000002807D0654B2A68C01A40238340134364
:10C540002B6001342178631C06226148029329760E
:10C5500000F0BEFC002800D19DE05E4B002B00D017
:10C5600090E00722059B07339343083305936B69DB
:10C57000039A9B186B61029C2378002B04D1029BC9
:10C58000E31A049312D003E0252BF8D00134F3E72B
:10C59000049B029A39003000FFF773FF431C00D15F
:10C5A00086E06A69049B944663446B612378002BA0
:10C5B0007ED00122002352426A6002A954325218EE
:10C5C00001342B60EB60AB601370AB652178052202
:10C5D000414800F07DFC002808D03F4B2A68C01A73
:10C5E0000123834013432B600134EFE72B68DA0605
:10C5F00004D55322202102A8121811701A0704D55D
:10C6000053222B2102A81218117022782A2A00D155
:10C610007CE7099B00200A2105E05242EA600222E1
:10C6200013432B607AE72278303A092A04D84B4327
:10C6300001349B180120F6E7002800D16FE7099329
:10C640006DE763782A2B0AD1059B02341A1D1B68FB
:10C650000592002B01DA01235B42079363E7002375
:10C660000A201A0001346B6021783039092904D876
:10C670004243013452180123F6E7002B00D152E760
:10C68000079250E705AB00933A00144B29003000A5
:10C6900000E000BF07E005AB00933A000F4B290014
:10C6A000300000F08BF80390039B013300D05EE76D
:10C6B000BB895B0600D526E70B981FB0F0BDC046CE
:10C6C000FCD201001CD301003CD3010062D3010065
:10C6D00066D30100000000005CD3010083C40100A8
:10C6E000F7B5170001938A680B6900900C0093421C
:10C6F00000DA130022003B6043321278002A01D096
:10C7000001333B6023689B0602D53B6802333B60E4
:10C71000062523681D401ED0230043331B785A1E74
:10C720009341226892061CD53020E11843310870ED
:10C7300021005A1C45310978A21843320233117086
:10C740000FE022000123193201990098089EB0479A
:10C75000431C0ED00135E3683A689B1A9D42F0DB1A
:10C76000DAE72200019943320098089DA847431C4C
:10C7700002D10120404220E006232068E1683A68A7
:10C7800003400025042B03D18D1AEB43DB171D401A
:10C79000A3682269934201DD9B1AED180027BD4270
:10C7A0000AD0220001231A3201990098089EB0474E
:10C7B000431CDED00137F2E70020FEBDF0B58BB0A0
:10C7C00006920A0043320793059004920A7E0C00F9
:10C7D000109B6E2A00D1ABE011D8632A22D009D871
:10C7E000002A00D1B5E0582A00D0C5E045310A70D2
:10C7F000814A4FE0642A1DD0692A1BD0BCE0732A0D
:10C8000000D1AAE009D86F2A29D0702A00D0B3E05D
:10C81000202209680A43226037E0752A1FD0782A4F
:10C8200033D0A9E00E001A684236111D1960136852
:10C830003370A4E021681A68080606D4490604D5B6
:10C84000111D19600023D55E02E0111D19601568E5
:10C85000002D3BDA2D23049A6D42137036E02168D7
:10C860001A68080606D4490604D51568111D196012
:10C87000ADB202E0111D196015685F4B227E039373
:10C8800008276F2A1DD00A271BE022007821453295
:10C8900011705A4A19680392081D226818600D68C1
:10C8A000100602D4500600D5ADB2D30702D520231E
:10C8B0001A4322601027002D03D1202322689A43B7
:10C8C00022602300002243331A7002E00A274A4BF9
:10C8D00003936368A360002B09DB04222168914362
:10C8E0002160002D05D1049E002B11D07BE0002D8E
:10C8F00079D0049E28003900FFF76EFB039B013EB0
:10C900005B5C280033703900FFF7E0FA051EF1D1B7
:10C91000082F09D12368DB0706D563682269934293
:10C9200002DC3023013E3370049B9B1B23612BE010
:10C9300009681A68080607D4490605D5111D19604B
:10C940001368A28A1A8004E0111D196013686269D5
:10C950001A600023049E236116E01A68111D1960F5
:10C96000166800216268300000F0B2FA002801D099
:10C97000801B6060636803E026004236327001234A
:10C9800023610023049A1370079B09AA00932100D6
:10C99000069B0598FFF7A4FE431C02D101204042EC
:10C9A00027E02369320006990598079DA847431C94
:10C9B000F4D0236800259B070FD4099BE0689842B8
:10C9C00017DA180015E0220001231932069905989C
:10C9D000079EB047431CE1D00135E368099A9B1AD2
:10C9E0009D42F0DBE9E72600039B42361B7833705B
:10C9F0008EE70BB0F0BDC0466DD301007ED30100C1
:10CA0000002370B5064C05000800236000F00AFB07
:10CA1000431C03D12368002B00D02B6070BDC0469F
:10CA2000E825002070B50C000E25495F00F0A2FA41
:10CA3000002803DB636D1B18636503E0A289024BCA
:10CA40001340A38170BDC046FFEFFFFFF8B51F0084
:10CA50008B8905000C001600DB0505D50E23C95E89
:10CA60000022022300F0CEF9A289054B28001340D2
:10CA7000A38132000E23E15E3B0000F077F8F8BDA1
:10CA8000FFEFFFFF70B50C000E25495F00F0BAF90B
:10CA9000A389421C03D1054A1340A38104E08022EC
:10CAA00052011343A381606570BDC046FFEFFFFFD5
:10CAB00010B50E23C95E00F0E1F810BDF8B5050011
:10CAC0000F001400002804D08369002B01D1FFF768
:10CAD000D9FB234B9C4201D16C6808E0214B9C425E
:10CAE00001D1AC6803E0204B9C4200D1EC68A36903
:10CAF000A360A3891B070AD52369002B07D02368ED
:10CB00002269FEB2981A636998420FDB08E021009F
:10CB1000280000F03FF80028F1D0012040421DE03D
:10CB20002100280000F042F90028F6D1A368013066
:10CB3000013BA36023685A1C22601F7063699842FE
:10CB400005D0A3893000DB0708D50A2E06D12100C5
:10CB5000280000F02BF90028DFD13000F8BDC046D6
:10CB6000FCD201001CD301003CD3010070B50500CC
:10CB7000080011000022064C22601A00FCF778FD24
:10CB8000431C03D12368002B00D02B6070BDC0462E
:10CB9000E8250020354B70B51D6806000C00002DFF
:10CBA00005D0AB69002B02D12800FFF76BFB304B9F
:10CBB0009C4201D16C6808E02E4B9C4201D1AC68CC
:10CBC00003E02D4B9C4200D1EC68A3899AB2110777
:10CBD00023D4D10607D4092201203260373213430F
:10CBE000A381404240E0530713D5616B002908D070
:10CBF00023004433994202D0300000F075F900233D
:10CC000063632422A3899343A38100236360236980
:10CC100023600822A3891343A3812369002B0BD12E
:10CC2000A023A2899B00134080229200934203D04C
:10CC30002100300000F0FAF80123A289134005D04A
:10CC40000023A36063695B42A36103E0910700D402
:10CC50006369A36000202369834205D1130603D5CD
:10CC600040231A43A281013870BDC04660200020D5
:10CC7000FCD201001CD301003CD30100002370B59D
:10CC8000064C05000800236000F0ACF9431C03D1FA
:10CC90002368002B00D02B6070BDC046E825002023
:10CCA000F7B58A8905000C0013075AD44B68002B8E
:10CCB00002DC0B6C002B19DDE76A002F16D0002375
:10CCC0002E682B6080235B011A4001D0606D14E058
:10CCD0000123216A2800B847431C0ED12B68002B82
:10CCE0000BD01D2B01D0162B02D12E6000205AE054
:10CCF0004022A3891343A38155E0A3895B0706D58E
:10CD00006368C01A636B002B01D0236CC01A002328
:10CD10000200216A2800E76AB847A389421C06D1AD
:10CD200029681D293AD8204ACA40D20736D50022A0
:10CD3000626022692260DB0405D5431C02D12B68A6
:10CD4000002B00D16065616B2E600029CED02300DE
:10CD50004433994202D0280000F0C6F800206063F6
:10CD600021E00F69002FC1D00B680F60DB1B01931E
:10CD70000023920700D14B69A36003E0019B3F1899
:10CD80001B1A0193019B002BB0DD019B3A00216A25
:10CD90002800A66AB0470028F0DCA38940220120C1
:10CDA0001343A3814042FEBD010040200B6970B5D2
:10CDB00005000C00002B01D100201CE0002804D04D
:10CDC0008369002B01D1FFF75DFA0B4B9C4201D127
:10CDD0006C6808E0094B9C4201D1AC6803E0084B49
:10CDE0009C4200D1EC680C22A35E002BE4D0210011
:10CDF0002800FFF755FF70BDFCD201001CD30100D5
:10CE00003CD3010070B50500080011000022064C5B
:10CE100022601A0000F0FEF8431C03D12368002BA7
:10CE200000D02B6070BDC046E8250020F0B58B898E
:10CE300091B006000C009B0726D40E23C95E002982
:10CE400004DA8023A5891D4010D10CE001AA00F06E
:10CE5000A5F80028F5DBF023029D1B021D401A4BAC
:10CE6000ED186B425D418027FF0001E0002540275F
:10CE700039003000FFF79AFA00280CD1A3899A05EF
:10CE80001FD402221343A38123004733236023616D
:10CE90000123636115E080220C4BB362A3892060FB
:10CEA0001343A38120616761002D0AD00E23E15E48
:10CEB000300000F085F8002803D00122A389134335
:10CEC000A38111B0F0BDC04600E0FFFF01C2010028
:10CED000C9B28218904204D003788B4202D001304C
:10CEE000F8E700207047000030B500293ED0043933
:10CEF0000B68002B00DAC9181D4A13681400002BB8
:10CF000002D14B60116031E08B420DD90A6888185C
:10CF1000834203D118685B6882180A604B60216005
:10CF200024E08A4203D813005A68002AF9D11D6808
:10CF30005C198C420BD10968691858181960824233
:10CF400014D110685268411819605A600EE08C4282
:10CF500002D90C23036009E008680C18A24203D12F
:10CF600014685268201808604A60596030BDC04695
:10CF7000E025002070B50500080011000022064CD5
:10CF800022601A00FCF782FB431C03D12368002BAC
:10CF900000D02B6070BDC046E8250020002370B58E
:10CFA000064C050008001100236000F023F8431C24
:10CFB00003D12368002B00D02B6070BDE825002032
:10CFC000002370B5064C05000800236000F01AF835
:10CFD000431C03D12368002B00D02B6070BDC046DA
:10CFE000E825002058220120014B40421A6070477A
:10CFF000E825002058220120014B40421A6070476A
:10D00000E82500205822024B00201A607047C046D5
:10D01000E825002058220120014B40421A60704749
:10D02000E8250020044A1368002B03D0181810606C
:10D0300018007047014BF9E7E4250020F025002097
:10D04000F8B5C046F8BC08BC9E467047F8B5C04667
:10D05000F8BC08BC9E46704743000000002000203A
:10D06000128401002E8401002E8401006C840100D2
:10D0700002850100AE850100B48401008A850100AB
:10D08000A6830100D0830100A6830100D0830100A4
:10D09000FE830100388501003885010038850100D4
:10D0A0003885010038850100EC8401008883010087
:10D0B0008883010088830100FE830100FE83010054
:10D0C000DC870100FE870100FE8701008E880100D9
:10D0D000C6880100548901009A8901000289010073
:10D0E000FE860100D0860100FE860100D086010088
:10D0F0004C8801002887010028870100288701004B
:10D1000028870100288701007E8701009C87010095
:10D11000688801002E890100C2870100C2870100D2
:10D12000DC200020A42000200021002001000300BA
:10D13000A182010012000300A1820100130003007C
:10D14000A182010014000300A18201000700000079
:10D150001E00000000009801010000001C1D080ACC
:10D160000000000000509D0000300040030000005F
:10D17000DCD10100E4D1010088D1010088D1010097
:10D18000ECD10100F4D101003F00000020544150D7
:10D1900000000000205348414B450000583A20252C
:10D1A00033642C20593A202533642C205A3A202508
:10D1B0003364207C202573257325730D0A0000003D
:10D1C0000A0D5457492073656E736F72206578613C
:10D1D0006D706C653578200D0A0000004C45465492
:10D1E000000000005249474854000000444F574E89
:10D1F0000000000055500000EC2400200900000051
:10D200000B0000000A000000080000000000000001
:10D210000000000000509D00030000000900000015
:10D220000B0000000A0000000800000000000000E1
:10D230000000000000509D000300000002000000FC
:10D2400005000000040000000300000003000000CF
:10D25000030000004DB20100020000004DB80100C3
:10D260000500000041AF01000000000001000000C7
:10D27000000098010300000000010000E1B6010079
:10D280000102000091B50100020100004DB801004B
:10D290000102000091B501000001000075B4010019
:10D2A000040300000000000005040000F1AE0100CE
:10D2B0000300000041AF01000200000041AF010087
:10D2C0000500000041AF010078D2010088D20100C2
:10D2D000DCD2010050D20100B0D2010001020000F6
:10D2E00075B30100030200004DB201000403000009
:10D2F0000000000005040000F1AE01000000000085
:10D30000000000000000000000000000000000001D
:10D31000000000000000000000000000000000000D
:10D3200000000000000000000000000000000000FD
:10D3300000000000000000000000000000000000ED
:10D3400000000000000000000000000000000000DD
:10D35000000000000000000000000000232D302B22
:10D360002000686C4C0065666745464700303132E6
:10D37000333435363738394142434445460030313D
:10D38000323334353637383961626364656600009C
:08D39000E4ADFF7F0100000085
:10D3980000000000FCD201001CD301003CD30100B6
:10D3A8000000000000000000000000000000000075
:10D3B80058D001000000000000000000000000003C
:10D3C8000000000000000000000000000000000055
:10D3D8000000000000000000000000000000000045
:10D3E8000000000000000000000000000000000035
:10D3F80000200020010000000215011223344556C8
:10D408006778899AABBCCDDEEFF001020304C30054
:08D41800398101000D810100C2
:040000031000BE79B2
:00000001FF
