:020000021000EC
:10C00000008000203D050200850502008705020032
:10C010000000000000000000000000000000000020
:10C020000000000000000000000000008905020080
:10C0300000000000000000008B0502008D050200DA
:10C040008F0502008F05020065ED010085020200E8
:10C050008F0502000000000069F101008F05020059
:10C060008F0502008F0502008F05020089E10100A3
:10C070008F0502008F0502008F0502008F05020068
:10C080008F050200DDD601008F0502008F0502003A
:10C09000BDD701008F050200090502008F050200CF
:10C0A0008F0502008F050200000000000000000064
:10C0B0000000000000000000000000000000000080
:10C0C000054B0648033310B51B1A062B03D9044B46
:10C0D000002B00D0984710BD882800208828002019
:10C0E000000000000648074910B5091A8910CB0F57
:10C0F0005918491003D0044B002B00D0984710BDAD
:10C1000088280020882800200000000010B5074C77
:10C110002378002B09D1FFF7D3FF054B002B02D06A
:10C12000044800E000BF0123237010BD88280020D0
:10C1300000000000BC530200094B10B5002B03D0D7
:10C140000849094800E000BF08480368002B02D1F5
:10C15000FFF7C8FF10BD064B002BF9D09847F7E753
:10C16000000000008C280020BC530200882800201A
:10C1700000000000164B002B00D1144B9D464022BE
:10C1800092029A1A924600218B460F461348144A8F
:10C19000121A00F067F80F4B002B00D098470E4B97
:10C1A000002B00D098470020002104000D000D480E
:10C1B000002802D00C4800E000BF00F02DF820005D
:10C1C000290000F005FD00F011F8C046000008004D
:10C1D00000800020000000000000000088280020EF
:10C1E000C02D00200000000000000000084B10B52A
:10C1F0000400002B02D0002100E000BF054B1868AE
:10C20000836A002B00D09847200000F033F8C04626
:10C2100000000000944E02000E4B70B500251E0079
:10C220000D4CE41AA410A54204D0AB00F358984773
:10C230000135F8E708F020FE084B00251E00084CE9
:10C24000E41AA410A54204D0AB00F3589847013576
:10C25000F8E770BD8028002080280020802800207A
:10C260008428002003008218934202D01970013301
:10C27000FAE77047FEE7C046A02210B5064BD2058C
:10C28000D15880231B041C00A1208C430B40034980
:10C29000C0001450535010BD040500000C050000F0
:10C2A000F8B54F4646460400C0B4012809D012280C
:10C2B00039D0132839D0142839D00CBC904699466F
:10C2C000F8BD0025012911D000291FD00229F4D181
:10C2D0006B005D191F4B5D196E78002EEDD01E4B63
:10C2E0001B68002BE9D030009847E6E7194B6F0038
:10C2F000984642467B19D65C43445B78002B18D1A4
:10C300007F194744BA78154B5A55E6E7144801F0AF
:10C31000C5FD104A6B005B19D318104A9B78565D17
:10C320009E42CAD1D9E70125CCE70225CAE70325F9
:10C33000C8E70C4B0A4899460B4B4A461B689900C4
:10C34000C918490001F026FD0028D9D14B461C70C0
:10C35000D6E7C04620290020D8280020D028002079
:10C36000DC280020C8280020D4280020F8B5B64BCF
:10C370001B68DB0700D4F8BDB44A1478172CFAD830
:10C38000B349A300CB589F46A023A122C021DB05BF
:10C39000D2004904802499500021AE48E40319508A
:10C3A0001C509950E7E7A022AB4BD205D15880230F
:10C3B000DB031C00A1208C430B40A649C000145095
:10C3C0005350A64B00221968A54801F0E3FCD2E7C0
:10C3D000A022A14BD205D1588023DB031C00A12051
:10C3E0008C430B409B49C000145053509B4B002280
:10C3F0001B689B489900C91801F0CCFCBBE7A0233F
:10C40000E021944ADB05490499500021043A9950EF
:10C41000B1E7944BA1211A68E0235B049343A02267
:10C42000C900D205535000218A4BD150A3E78D4B50
:10C43000A1201968C0235B048B43A0210027E026BC
:10C44000C905C000834D0B50834B4F51CB58760428
:10C4500073408026F603334000D1ECE00E504F517C
:10C460002821022C00D1C4E014701BE07D4BA120D8
:10C470001968C0235B048B43A0210026E025C90571
:10C48000C000744C0B50744B0E51CB586D046B4074
:10C490008025ED032B4000D1BDE00D5003230E514C
:10C4A000082113706D4B00221B686D48594301F041
:10C4B00071FC60E76B4BA1201968C0235B048B43C0
:10C4C000A0210026E025C905C000624C0B50624B3C
:10C4D0000E51CB586D046B408025ED032B4000D1ED
:10C4E000A6E00D500E51062313706AE7A023E02149
:10C4F000A122DB054904D20099500021554A9950E8
:10C5000039E7584BA1201968C0235B048B43A02155
:10C510000026E025C905C0004E4C0B504E4B0E5175
:10C52000CB586D046B408025ED032B4078D00D5027
:10C5300004230E512821B4E74B4D280001F0AEFC36
:10C5400011231C1B58D0002856D18023454E1B04B4
:10C550003360012C10D0C8306421604304F0F4FE35
:10C560003E4B00221B6843432800190001F012FCD7
:10C57000E02332685B041340A0223649D2055350B1
:10C58000A1230021DB00D150F5E6C022354B520437
:10C590001B68A1219A43A023C900DB0580245A50BF
:10C5A00000222C48E4031A501C505A50E3E62D4B4D
:10C5B000A1201968C0235B048B43A0210026E0253D
:10C5C000C905C000234C0B50234B0E51CB586D04B2
:10C5D0006B408025ED032B4027D00D500E510523D5
:10C5E00013701E4B002219681D48490001F0D2FB50
:10C5F000C1E61639147055E7E0231A4A5B04116846
:10C60000A1200B40A021C000C9050B5000231148F8
:10C610000B501360AFE60D510B500221032340E78E
:10C620000D510B50042104233BE70D510B50D6E76D
:10C630000D510B5057E74E510B500421022C00D0E6
:10C6400012E7023914702DE7CC280020FC280020C6
:10C65000984E02000C05000004050000D4280020BC
:10C66000A4280020C42800200029002010B5037849
:10C67000012B06D0122B12D0132B12D0142B12D058
:10C6800010BD00235A00D318084AD3185878002840
:10C69000F6D0074B1B68002BF2D09847F0E7012338
:10C6A000F0E70223EEE7113BECE7C046202900202B
:10C6B000D828002070B5DB4B04001B680020DB0786
:10C6C00000D470BD172CFCD8D74AA300D3589F467E
:10C6D000A022D64BD205D1588023DB031C00A12019
:10C6E0008C430B40D249C00014505350D14B002210
:10C6F0001B68D1489900C91801F04CFBE1E7A02262
:10C70000CA4BD205D1588023DB031C00A1208C43E7
:10C710000B40C749C00014505350C64B0022196843
:10C72000C54801F037FBCCE7C44D280001F0B6FB4B
:10C7300011231C1B00D14CE1002800D049E18023CB
:10C74000BF4E1B043360012C10D0C83064216043FD
:10C7500004F0FAFDB74B00221B6843432800190080
:10C7600001F018FBE02332685B041340A022B049BB
:10C77000D2055350A1230021DB00D150A1E7A02313
:10C78000E021A122DB054904D20099500021A84AEA
:10C79000002099501222AB4B1A7092E7A023A122DD
:10C7A000C021DB05D2004904802499500021A04813
:10C7B000E40319501C5099501322A24B00201A7008
:10C7C0007FE7A023E0219A4ADB0549049950002124
:10C7D000043A99509B4B00201C7072E7984BA121A2
:10C7E0001A68E0235B049343A022C900D20553508A
:10C7F00000238F4900205350924A137061E7904BF9
:10C80000A1211A68C0235B049343A0220026E025DF
:10C81000D205C90086485350844B1650D3586D0436
:10C820006B408025ED032B4000D1E9E055501650B8
:10C830002821022C00D1F2E0824B1C707D4B00229B
:10C840001B687D48594301F0A5FA3AE7A023E0218F
:10C85000774ADB05490499500021043A99500C228B
:10C86000784B00201A702CE7A023A122C021DB0501
:10C87000D20049048024995000216D48E4031950E6
:10C880001C50995014226F4B00201A7019E76C4B02
:10C89000A1211A68C0235B049343A0220025E02451
:10C8A000D205C90062485350604B1550D3586404F8
:10C8B00063408024E403234000D199E05450155094
:10C8C000082103221AE05E4BA1211A68C0235B04F1
:10C8D0009343A0220025E024D205C90054485350B8
:10C8E000524B1550D358640463408024E403234022
:10C8F00000D18DE05450282115500422514B1A705C
:10C900009CE7C0224E4B52041B68A1219A43A023EE
:10C91000C900DB0580245A5000224548E4031A5020
:10C920001C505A50474B07321A700020C9E6A0230A
:10C93000A122C021DB05D2004904802499500021A6
:10C940003B48E40319501C50995015223D4B0020E0
:10C950001A70B6E63A4BA1211A68C0235B049343D0
:10C96000A0220025E024D205C900314853502F4BA6
:10C970001550D358640463408024E40323403CD022
:10C980005450155005222F4B2B481A70294B00226A
:10C990001968490001F0FEF993E6294BA1211A68B4
:10C9A000C0235B049343A0220025E024D205C900E4
:10C9B0001F4853501D4B1550D358640463408024C6
:10C9C000E403234028D05450155006221D4B1A7002
:10C9D000A3E6E0231A4A5B041168A1240B40A021BE
:10C9E000E400C9050B510023114C0B51136068E69C
:10C9F000145053500221032280E714505350C1E7D2
:10CA0000155053500421022C00D015E7023913E7CA
:10CA100014505350042170E714505350D5E7163981
:10CA20000AE7C046CC280020F84E020004050000AA
:10CA30000C050000D4280020A42800200029002094
:10CA4000C4280020FC280020234B10B51960234B7C
:10CA500004001860224B1A60830712D50D22214B67
:10CA600021481A700132DA7001329A7101325A7219
:10CA70004A08042101F016FB002820D0E30703D464
:10CA800010BD0020E3070DD5A023E022A121002442
:10CA9000DB055204C9005A5014495C500C315A50FD
:10CAA0000028EDD1124A0021124801F059F900285E
:10CAB000E6D1114A0121114801F052F9E0E701F0F5
:10CAC0004BFB0028DAD10E4A00210E4801F048F94C
:10CAD000E307D9D4E4E7C046D4280020CC280020BE
:10CAE000D828002020290020644F02000C050000F7
:10CAF0006DC301005C4F020079C20100604F02006B
:10CB00006DC60100584F020010B50378022B02D009
:10CB1000012B00D010BD40680022002100F096FDDE
:10CB2000F8E7C04630B589B001A802000D4B32CB02
:10CB300032C20D4B0D4A0493012305930C4B04A9FB
:10CB4000069380235B000793FD3B01F00FFC002858
:10CB500003D00022002100F079FD064807F052FAC8
:10CB600009B030BD844F02002C29002009CB010000
:10CB700030290020904F020070B584B06A4604004E
:10CB80000A4B694661CB61C21B6820001360002319
:10CB9000002203F045FA002803D00022002100F013
:10CBA00055FD200003F028FB04B070BDA04F02002B
:10CBB00073DF704760DF704748DF704710B50A00C9
:10CBC0000100024800F042FD10BDC046EFBEADDEE0
:10CBD000F0B544465F4656464D46F0B495B0FFF773
:10CBE000A1FF734807F00EFA724C2000FFF7C4FF54
:10CBF000714807F007FA200001F0ACFC01F0D8FC06
:10CC000000236E4A0521002001F038F8002800D0EA
:10CC1000C8E000226A490120FFF716FF002800D073
:10CC2000BBE0002348226749082003F047FC0028A6
:10CC300000D0ADE006AC082200212000FFF712FB77
:10CC400001222378200093432370FFF7B3FF0028CD
:10CC500000D098E0592303AF3B805B4B5B4D1B88B2
:10CC600000211A0AEB745A4BAA7498461B882000BC
:10CC70001A0A6B7517232A753822BB80BD60FFF72F
:10CC8000F1FA00230021237020000433E37067626F
:10CC900000F00AFC002871D14E4E1822002130000D
:10CCA000FFF7E0FA0323A022337000233000736003
:10CCB000337232827382FFF77BFF002859D1022042
:10CCC000FFF7F8FC00284FD159233B80424B9B468D
:10CCD0000FE040BF20BF20BFFFF76EFF002803D04A
:10CCE0000022002100F0B2FC434642461B8801337B
:10CCF000138001F03FFD814601F0A8FD0600374892
:10CD000001F024FE8246484605F0E6FA8146504688
:10CD100007F06AF83200009001914946584607F042
:10CD200071F92F4801F022F93312AB7443461B8886
:10CD300000211A0A6B7517232A7520003822BB8040
:10CD4000EE74BD60FFF78EFA0023002123702000EF
:10CD50000433E370676200F0A7FB0028B9D000221B
:10CD6000002100F073FCB4E70022002100F06EFC0B
:10CD7000AAE70022002100F069FCA0E700220021C0
:10CD800000F064FC88E70022002100F05FFC61E70E
:10CD90000022002100F05AFC4CE70022002100F0A4
:10CDA00055FC3EE70022002100F050FC31E7C04670
:10CDB000B04F0200EC4F0200C04F0200302A0020AA
:10CDC000CD0C0000F82B00206428002068280020EB
:10CDD00066280020402C0020C84F0200FF61CA4294
:10CDE0008813000071DF704772DF704779DF70478A
:10CDF0007DDF704765DF7047F0B55F4656464D46AC
:10CE00004446F0B485B09A460EAB80CB06001B8832
:10CE100000919B463B8801930388002B64D000233C
:10CE20000E97994602ABDD1C0E9B00241700984616
:10CE300003E033880134A3422CDD7368A1009C46D3
:10CE40000422614403A807F0D3F80022290003A8B4
:10CE5000FFF7D0FF002829D12B78BB42E9D14B4600
:10CE6000002B2AD043461A88D3195B453EDC524436
:10CE7000290003A8FFF7BEFF002817D143462A78F0
:10CE80001B880134D3184246138001239946338806
:10CE9000A342D2DC4B464746002B25D03B88019A63
:10CEA000013B9B1A9BB20C20FF2B1AD905B03CBC4E
:10CEB00090469946A246AB46F0BD43461B88DA1918
:10CEC00002325A4512DC4246013369469BB2138056
:10CED00052460978D15443461A88013292B21A80D8
:10CEE000C5E71100524653540020DFE70C20DDE770
:10CEF000F0B55F4656464D4644460023F0B41788C9
:10CF00001380436B87B006000D001400002B00D186
:10CF10009BE1022F00D890E11A7802230B701121B7
:10CF2000238801339BB22380E954238801339BB2C9
:10CF30002380EA54238801339BB22380326B002A7A
:10CF400000D170E019001231B94200D975E1112108
:10CF5000E9542388013901339BB22380E9542388A3
:10CF600001339BB22380D17BE954238801339BB2E8
:10CF70002380917BE954238801339BB22380517B2A
:10CF8000E954238801339BB22380117BE954238821
:10CF900001339BB22380D17AE954238801339BB2B9
:10CFA0002380917AE954238801339BB22380517AFC
:10CFB000E954238801339BB22380117AE9542388F2
:10CFC00001339BB22380D179E954238801339BB28A
:10CFD00023809179E954238801339BB223805179CE
:10CFE000E954238801339BB223801179E9542388C3
:10CFF00001339BB22380D178E954238801339BB25B
:10D0000023809178E954238801339BB2238051789F
:10D01000E954238801339BB223801278EA54238891
:10D0200001339BB223802E22B25C002A00D00EE195
:10D030002D22B25C002A00D02BE1B278002A00D069
:10D0400054E1F278002A14D0D91CB94200D9F4E096
:10D050000221E9542388013901339BB22380E9542A
:10D06000238801339BB22380EA54238801339BB287
:10D0700023807268002A14D0D91CB94200D9DCE0A0
:10D0800002211278E9542388083101339BB22380AE
:10D09000E954238801339BB22380EA542388013367
:10D0A00023803389002B00D09CE1338A002B00D0F1
:10D0B000B2E1338B002B00D0C8E1336A002B4BD098
:10D0C00022880C20911D9346B94200D9B6E01988F8
:10D0D00005388A46052900D8B0E0BC496A468C4626
:10D0E000D4446146D181D1898C46B94988468C4562
:10D0F00000D8A3E059888C46052900D89EE0B349A2
:10D100006144D18189B2414500D897E0B1498A454F
:10D1100004D08C4502D0E24500D98FE005215A4663
:10D12000A95422880D31013292B22280A95422885A
:10D13000013292B222801988AA181170090A51701E
:10D140002288023292B222805988AB181970090ADB
:10D150005970238802332380736A9846002B30D09D
:10D160009A882188131D5B180C20BB4266D8931C3B
:10D17000FE2B63D803326A54FF22238801339BB20B
:10D180002380EA544246238801339BB223801288CD
:10D19000EB181A70120A5A704246238802339BB267
:10D1A00023809288002A0CD04146896805380029DE
:10D1B00044D0E81806F01CFF434622889B88D31809
:10D1C00023802C23F35C002B00D0B0E033780020C8
:10D1D000002B33D032880720012A2FD02288901CC0
:10D1E000B8422AD8012B04D1737802339B189F428E
:10D1F00023D3023FBA1A04AF93B2281839009846D5
:10D200003B80FFF7F5FD002818D13378022B00D1C1
:10D2100042E1012B00D1DFE043460821FE2B0CD870
:10D2200022885E1CAE542288013292B22280A95418
:10D23000228801329B18238000E00C2007B03CBC00
:10D2400090469946A246AB46F0BD002376E6D91C2F
:10D250000C20B942F2D80221E9542388103001335E
:10D260009BB22380E854238801339BB22380022A97
:10D2700000D10CE100D805E1032A00D10AE1042A1B
:10D2800000D0FDE00322EA54238801339BB22380BF
:10D29000CEE609330C20BB42D0D804A8FFF7A2FD8C
:10D2A0000028CBD1082223880921EA54238813328D
:10D2B00001339BB22380EA5402AB9C462088153A86
:10D2C000013080B220806144281806F091FE238846
:10D2D00002AA0633127A9BB22380002A00D00122D0
:10D2E000EA54238801339BB22380A6E604330C2042
:10D2F000BB42A3D804A8FFF779FD00289ED10322E2
:10D300002388EA542388163201339BB22380EA54DF
:10D31000238802AA01339BB212892380EB181A706A
:10D32000120A5A70238802339BB2238089E6B36ABB
:10D330009846002B00D1A3E09B880233FE2B00D936
:10D340007BE7002291461632924616322088934699
:10D350000CE04B46B26A5B0090464B449B009844FD
:10D3600043469B880233FE2B00D966E752460133C1
:10D370002B54238801339BB22380EA5442462388EE
:10D3800001339BB223801288EB181A70120A5A706C
:10D3900043462088023080B220809A88002A0BD031
:10D3A000996800296CD0281806F022FE4346208890
:10D3B0009B88C01880B220804B460133DBB299466F
:10D3C0005B46F35C4B45C4D800E7C0467FF3FFFFE4
:10D3D0007DF30000FFFF00007378984500D31CE741
:10D3E00043461AE708239846B044019700942B005F
:10D3F000022202214046FFF7FFFC002800D01DE773
:10D40000019700942B00102206214046FFF7F4FC00
:10D41000002800D012E748E610239846B044019750
:10D4200000942B00022203214046FFF7E5FC002870
:10D4300000D003E7019700942B00102207214046FB
:10D44000FFF7DAFC002800D0F8E632E61823984609
:10D45000B044019700942B00022214214046FFF7AC
:10D46000CBFC002800D0E9E6019700942B001022A5
:10D4700015214046FFF7C0FC002800D0DEE61CE680
:10D480000720DBE6012AFBD10022EA54FCE6012258
:10D49000EA54F9E6E954F7E63B880921984500D3B8
:10D4A000BCE64346B9E6C04630B593B01F236A4692
:10D4B0000C009380D380002822D0C3785B071CD552
:10D4C00001AA02A9FFF714FD02AD002816D1002C15
:10D4D00019D0E378002B10D16B460AA99A1D2000C1
:10D4E000FFF706FD002809D16B469B790AAA694619
:10D4F00028000979FFF778FC00E0072013B030BD61
:10D5000090800025E3E76B460022DC800023EEE7F5
:10D510001D4B1B78012B00D070471C4B1B681B0751
:10D52000FAD1F0221A4B1B68134018D1194B1B6813
:10D5300013421CD0154B1B681B07EDD1F022144B76
:10D540001B681340402BE7D1124B1B681342E3D1F9
:10D55000C12380220121DB00D205D150DCE7102B52
:10D5600001D0302BEAD10B4B1B681342E6D10A4A9B
:10D570000A4B1A6080220A4B12021A60024B1B7877
:10D58000012BD7D0C8E7C046E00F00F0E40F00F051
:10D59000E80F00F0EC0F00F0DFFF07C004050040CB
:10D5A000186C004070B516000C008D18002A05DDBF
:10D5B0002078013400F046FFAC42F9D1300070BD54
:10D5C00010B50C00200000F023FF0528FAD0012040
:10D5D00010BDC04610B500290DD00923002A01D185
:10D5E000180010BD541E2240FAD182600160848070
:10D5F000C2600023F4E70E23F2E7C046030010B533
:10D600009C888068DA68121A0420944200D210BD07
:10D61000DA68002014401A681155DA680132DA60BD
:10D62000F5E7C04610B58468C2680300052094423F
:10D6300000D110BD98689A8802401868825C00206A
:10D640000A709A6801329A60F3E7C046BFF34F8FC1
:10D65000024A034BDA60BFF34F8FFEE70400FA057E
:10D6600000ED00E080218023184A8902D1508022F9
:10D67000D221174B520289005A5040395A50012288
:10D680002F205A600138C046C046C046C046C0463A
:10D69000C046C046C046C046C046C046C046F1D19E
:10D6A0009A6000230B4A2F2013600138C046C04601
:10D6B000C046C046C046C046C046C046C046C0463A
:10D6C000C046C046F1D1044A1370704700E100E043
:10D6D00000100140582C0020782C0020A021F0B52B
:10D6E000002347462C4A490080B45350043153501C
:10D6F00004315350043153504C395350043153507A
:10D70000264B1B68002B37D0254900265258254947
:10D71000254F0C68141B00222402240A904602E0C4
:10D72000002D1AD02B001A68A24216D8A41AB618D7
:10D730001A7CDD69002AF3D0424699691A745A6945
:10D740003B68002B1BD0100098470028E8D000222F
:10D750000021FFF77BFF002DE4D1144B14491A7808
:10D760000B789A420ED0134A9B009E508021802352
:10D77000114A49035B00D15004BC9046F0BD08003B
:10D780009047CDE70132D3B2022B01D00B70EAE70C
:10D7900000230B70E7E7C046001001405C2C00201E
:10D7A00004050000582C0020602C00206C2C002068
:10D7B0006D2C0020702C002000E100E0F0B55F46E9
:10D7C00056464D464446F0B4C24BC34A1B68C34953
:10D7D0008BB0059309781378994200D154E1013355
:10D7E000DBB2022B00D100231370BD4A9B009B5873
:10D7F000B84A9A46059B53441B021B0A1360012337
:10D800000193B84B00241B689B46B74B5A461B78C4
:10D810009146190088460393B44B47461B68013F65
:10D820000493AC4B1B680893B14B1B780793002300
:10D83000099306931E00FBB29846FF2B32D0434655
:10D84000D800049B9C4613006044017845780096FC
:10D850001A00A9421FD046684A00B446521886787A
:10D860000131D200C9B262448E4200D1EBE0167899
:10D87000022E00D1C5E0032EEAD1002BE8D01C74A3
:10D88000DB69002BFBD101334578009300239946D7
:10D890001A00A942DFD14746013FFBB2009E9846DD
:10D8A000FF2BCCD10292002E00D0F1E0069B002B82
:10D8B00002D0884B089A1A60099B002B03D06A4655
:10D8C0008B4B127F1A70019B002B00D02AE15B4624
:10D8D000029A00259B1A5A1E9341DBB205937D4B99
:10D8E00000271B6802999C467E4B1B689B46804B19
:10D8F0001B780693002301937E4B994601230093E6
:10D90000039B013BDBB20393FF2B00D1F6E0049AAB
:10D91000DB0092460E009A44002D28D06A68A96860
:10D920002C00ED696346D31A1B021B0A4B4552D8E3
:10D930006A4612785B1823606760A7602274E7610B
:10D94000002E58D031683000994205D3B6E01168F6
:10D95000994200D3A0E01000C2695B1A002AF6D1F8
:10D96000E26132002360C4611600002DD6D1534617
:10D970001A785B7831009342C2D05146496853000F
:10D98000884651469B180132D2B20A708978DB0072
:10D990004344914200D19AE0197832000129E3D141
:10D9A0005C68227C9046414632000029DCD19A68AE
:10D9B0006260D968A1601869E0605B69A361069B39
:10D9C000002BAFD04346002263606346D31A1B028C
:10D9D0001B0A4B45ACD963469A1A1202120A8A42B4
:10D9E00061D28B1A6A46127823606760A76022743E
:10D9F000E761002EA6D122000123A3460193160061
:10DA0000B3E75668002B30D09E421ED0009A1F000C
:10DA1000944602E0964206D01700FA69002AF9D12E
:10DA20006246009214E765460095BA420FD0156829
:10DA3000D269FA61002A16D013689C4665441560C5
:10DA400045784B4604E7002111E71A001F00DE6904
:10DA5000002E0CD0012500951568D269B14633001F
:10DA6000FA61002AE8D14578F2E60023F0E60125C4
:10DA7000214B9D6009950795069500250023089583
:10DA8000013599460095D2E700239A460193B8E6FE
:10DA90004A46144B1A6009E7C91A1160E261236013
:10DAA0003200C46160E76B461B7827606760A7603F
:10DAB0002374E761002E9ED000233168CB1A3360B7
:10DAC00022000123E661A346019316004DE752466A
:10DAD000157061E7582C00206C2C00206D2C002064
:10DAE000702C00205C2C0020642C0020682C00206E
:10DAF0006E2C0020FEFF7F0000100140019B002BD8
:10DB000000D09DE0029B994236D1059B002B33D17A
:10DB10000023534A13700BB03CBC90469946A24672
:10DB2000AB46F0BD4F4B002418680025029B002136
:10DB30000026574615E01A68BA4200D984E0D86832
:10DB4000BF1A89181E60DC69002807D0DD611D003E
:10DB5000059A986052181202120A5A602300200097
:10DB6000019C002BE7D1002C01D03E4B1860002314
:10DB7000029301330593B2E6002900D15DE00B6802
:10DB800039489846394B3A4DC4583A4B2E781B6861
:10DB9000E11A0902090A0331002E2DD042468A42B9
:10DBA00000D20A00A820D21812022F49130AC0007E
:10DBB0002E4D0B504A591B1B121B1202120A1B023C
:10DBC00003321B0A9A42A3D94B590B502F2001381C
:10DBD000C046C046C046C046C046C046C046C04615
:10DBE000C046C046C046C046F1D180218023224AAB
:10DBF00089025B00D1508BE78026D1277602BF00D7
:10DC0000C651403FC651C02280271B4EBF02520062
:10DC1000B7503760012606602F200138C046C04645
:10DC2000C046C046C046C046C046C046C046C046C4
:10DC3000C046C046F1D12E70B0E7FFF713FD67E78D
:10DC40005A46084B1A605DE7BA46002C01D00549D8
:10DC500008605146521A1A600293012305933EE66A
:10DC60006E2C00205C2C00200010014004050000F8
:10DC7000782C0020582C002000E100E0F8B54F4639
:10DC80004646C0B40326350080460F00140099466E
:10DC900015400720002D03D00CBC90469946F8BDD6
:10DCA000002A44D0FFF7DEFC4A46224B80201A604F
:10DCB0002200214B18321E70204B62601C607B00DA
:10DCC000DB19DB00D218E260D318C0226361257033
:10DCD0006570A77025726572A77225746574A77444
:10DCE000C524FF21164B40031D60164B52001D70CA
:10DCF000154BA4001D70154B98501A598A433F3993
:10DD00000A431A51A122186040461149D200885096
:10DD1000C42080001C580F4A2240C0242402224301
:10DD20001A500D4B0020CA580C4B1A60B4E7034B35
:10DD30001A60B1E7602C0020642C0020682C0020C1
:10DD40005C2C00206C2C00206D2C002000E100E0F9
:10DD500000100140FF00FFFF04050000582C0020C8
:10DD600010B50B4B1B68002B0BD0002A07D00028E6
:10DD700005D0036808201C7C002C04D010BD0720AF
:10DD8000FCE70820FAE759745A610020F6E7C0461C
:10DD9000682C0020F0B5474680B43A4B1C68002C34
:10DDA00008D0002806D00723042905D8180004BC91
:10DDB0009046F0BD0823F9E74369002BFAD0437C75
:10DDC000012B48D000239C462F4B10255B68DB05B8
:10DDD000DB0D26D1641963785F1CFEB2A778B742C9
:10DDE0003DD02778B74238D05D00ED186368ED006C
:10DDF000984645440423002DD8D0033B2B7068601F
:10DE0000224B2348C358E960AB60634680212B61F5
:10DE100080236A611F4A5B0049036670D15000236A
:10DE2000C4E7103BDFB27DB2002D1ADB0326AD083C
:10DE3000184FC035AD00ED593340DF002B00FB40DB
:10DE40009B093340DBB20025012BC3D00835032BDF
:10DE5000C0D00835BEE78C46B6E70423A6E7002607
:10DE6000BFE70F230C4D3B40A8460325083B9B080A
:10DE70009B0043445B682F40FF00FB409B092B4005
:10DE8000E0E7C046682C002000ED00E0040500003B
:10DE90000010014000E100E018ED00E010B52F4A4D
:10DEA00003001168082000292AD0002B28D05A69C5
:10DEB000002A25D000221A74294A08305268D20557
:10DEC000D20D1ED109184A788878541CE4B2A042B9
:10DED00032D00878A0422DD0500082184868D20075
:10DEE000844662440420002A0AD00238107053602D
:10DEF0004C708023802100201A4A49035B00D150D6
:10DF000010BD103AD4B260B2002817DB8008154C5F
:10DF1000C0308000005903242240D200D040820942
:10DF20002240D2B20020012ACCD00830032AC9D026
:10DF30000830C7E70420E3E70024CAE70F220A48B5
:10DF4000224084460320083A9208920062445268B4
:10DF50000440E400E24092090240E2E7682C00201D
:10DF600000ED00E000E100E018ED00E082B001907B
:10DF7000019B002B14D0019B0A48013B01930138FF
:10DF8000C046C046C046C046C046C046C046C04661
:10DF9000C046C046C046C046F1D1019B002BEAD125
:10DFA00002B07047E7030000F0B54E4657464546BD
:10DFB000E0B4214B1978994600292AD01F4B00253F
:10DFC00098461F4B1F4F01269A4603E00135EDB2DC
:10DFD0008D421ED243461B6832009C46EC006444CE
:10DFE00020783B6882401342F0D093433B6001F0BD
:10DFF000B1F8330022785146934009680B40010084
:10E0000091408B420AD04B4601351978EDB28D42D2
:10E01000E0D31CBC90469946A246F0BD6368002B35
:10E02000F1D0617801394C424C41211A4C424C41AB
:10E030001000E1B29847E6E7842C0020802C0020F5
:10E04000A82C0020AC2C0020F8B5124D07002800A9
:10E05000FFF724FF002807D10124BC400E4E33688F
:10E06000234202D0A3433360F8BD380001F072F8B8
:10E070000A4A136800280BD0234313603368002238
:10E080001C43074B280019683460FFF783FEEBE759
:10E09000A343F2E7882C0020AC2C0020A82C002001
:10E0A0007C2C0020F0B54F464646C0B41400070053
:10E0B00083B00E000720042A04D803B00CBC90469D
:10E0C0009946F0BD00F038FF00282FD01A4B1B4AAC
:10E0D0001F601B4B751E1E701A4BEDB21C60002397
:10E0E0001360194A1360002E1AD0184B01AC9946E0
:10E0F00003230026984600E01D004246EB00FB1873
:10E100002270A670E6709A781878627021004A46EC
:10E1100000F01CFF0028D0D16B1EDBB2002DEBD12C
:10E120000B4A00210B48FFF71BFEC6E700F0D0FEAC
:10E130000028CBD0C1E7C046802C0020A82C0020AE
:10E14000842C00207C2C0020AC2C002049E0010015
:10E15000A9DF0100F44F020070B5094D2B78002BA8
:10E160000BD00024074E3268E300985C012100F0D8
:10E170009DFF2B780134A342F5D8002070BDC04626
:10E18000842C0020802C0020C12210B5414B92002D
:10E19000995880225202114203D03F490868002852
:10E1A00048D1C1223B4B92009958802292021142E1
:10E1B00003D03A490868002848D1C122354B920063
:10E1C00099588022D202114203D0354908680028AC
:10E1D00048D1C1222F4B920099588022120311423C
:10E1E00003D030490868002848D1C122294B920049
:10E1F0009A58D20704D5802252009958002912D18A
:10E20000C122244B92009A58920704D582225200D0
:10E210009958002900D110BD00219950224B0520AA
:10E220001B689847F7E7002199501F4B04201B6893
:10E230009847E5E7D22080001A5040381A50002352
:10E240000B60194B00201B689847AAE7D22080007A
:10E250001A5040381A5000230B60134B01201B68E2
:10E260009847AAE7D22080001A5040381A5000235D
:10E270000B600D4B02201B689847AAE7D220800054
:10E280001A5040381A5000230B60074B03201B68BC
:10E290009847AAE700B0004040B1004044B10040B8
:10E2A00048B100404CB10040B02C002030B504789B
:10E2B00085B0012C19D0022C34D0002C01D005B02F
:10E2C00030BD254D254C29002000FFF7ABF9002873
:10E2D00023D0A268E3689A42F1D1032302AA137003
:10E2E0001F4B10001B689847E9E743681D4D1978DC
:10E2F0002800FFF783F900281ED1AA68EB689B1A53
:10E30000012B21D0AA68EB689B1AAA889342D6D821
:10E310000121154800F098FCD1E70121280000F008
:10E3200039FCD6E702AB1C70C36802A801930393C3
:10E330000B4B1B689847C2E702AB1C70084B03905D
:10E340001B6802A89847DDE702AB1870044B02A8CF
:10E350001B689847D6E7C046B42C0020C02C00208C
:10E36000B82C0020D02C0020BC2C0020F0B51E00C2
:10E37000214B050089B00C001A600720002906D047
:10E380008A881E480968FFF725F9002801D009B0DE
:10E39000F0BDA289A1681A48FFF71CF90028F6D140
:10E3A0006A46184B684692CB92C292CB92C212CB6D
:10E3B00012C2AB6806932B7906775A1E93410375F8
:10E3C0006B790E22591E8B415B421A404275EB78E5
:10E3D0000293AB7803932B7801936B7800930A49EF
:10E3E00000F050FB0028D2D100F0A6FC0121074824
:10E3F00000F02AFCCBE7C046B82C0020D02C00202F
:10E40000C02C0020F84F0200ADE20100BC2C00201F
:10E4100070B50A4C0500A168A288E3685B1A9A42AD
:10E4200004D029002000FFF7FDF870BD0121044849
:10E4300000F00AFC0028F4D00520F6E7D02C0020DC
:10E44000BC2C002010B5040006480121047000F027
:10E45000A1FB112800D010BD21000348FFF7CEF822
:10E46000F9E7C046E02C0020C02C0020AA2370B59C
:10E470008AB004AC03AE1622002120003370FDF7F1
:10E48000F1FE0123274D009332007721286801F027
:10E49000E1FE00232868220000937721163301F063
:10E4A000E5FE237862781B0213431F4A1380A3788A
:10E4B000E2781B0213431D4A1380237962791B0201
:10E4C00013431B4A1380E3881A4A5BBA9BB213605A
:10E4D0002389194A5BBA9BB213606389174A5BBAF6
:10E4E0009BB21360237B627B1B021343144A13808D
:10E4F000A37BE27B1B021343124A1380237C627CC2
:10E500001B021343104A1380A37CE27C1B021343BB
:10E510000E4A1380237D627D1B0213430C4A138035
:10E520000AB070BDE42C0020AC2D0020AA2D0020E4
:10E53000AE2D0020B82D0020A42D0020982D002005
:10E54000B42D0020A82D00209E2D0020B22D0020EB
:10E55000A02D002010B504000C4805F053FD0C4B15
:10E560000C4A1C6000230C4913700C4A11800C4AA1
:10E570001380FA220B4B92001A8001220A4B1A7068
:10E580000A4B07321A80FFF771FF10BD18500200C6
:10E59000E42C00209C2D002018FCFFFF942D00206F
:10E5A0008E2D00208C2D0020B02D0020902D0020DD
:10E5B00010B5204B20480021595E05F023FD1F4B6C
:10E5C0001F480021595E05F01DFD1E4B1E4800210D
:10E5D000595E05F017FD1D4B1D48196805F012FD29
:10E5E0001C4B1D48196805F00DFD1C4B1C48196893
:10E5F00005F008FD1B4B1C480021595E05F002FD8B
:10E600001A4B1B480021595E05F0FCFC194B1A48B7
:10E610000021595E05F0F6FC184B19480021595E9F
:10E6200005F0F0FC174B18480021595E05F0EAFC94
:10E6300010BDC046AC2D002024500200AA2D0020A1
:10E6400030500200AE2D00203C500200B82D0020BA
:10E6500048500200A42D002054500200982D0020A4
:10E6600060500200B42D00206C500200A82D002044
:10E67000785002009E2D002084500200B22D002010
:10E6800090500200A02D00209C500200F0B54D4695
:10E690005F46564644460122F0B4324B85B01B78A3
:10E6A0009146002B01D0032399462F4A0B2793460E
:10E6B00000222E4B00269A4603AC1B782C4D6F444B
:10E6C000904615E0434600932200032377212868F3
:10E6D00001F0CCFD002803D000220021FEF7B6FF98
:10E6E0005346013620786178A2781B78B14527D04F
:10E6F0009B013433F422637043462270009322005E
:10E7000002237721286801F0A5FD002803D000220C
:10E710000021FEF79BFF5B460020185EFFF726FCFA
:10E72000F6233B70F53B00933A007721286801F00F
:10E7300091FD0028C6D000220021FEF787FFC1E727
:10E7400009020004084310430822D31A184149461D
:10E7500002F084FE05B03CBC90469946A246AB460A
:10E76000F0BDC0469C2D0020902D0020B02D002033
:10E77000E42C0020F42330B595B004AC2370C63BE4
:10E7800063700023294D009322000233772128680B
:10E7900001F060FD002803D000220021FEF756FFA3
:10E7A0000520FFF7E3FB0F22F6236A441370F53BC5
:10E7B00000937721286801F04DFD002831D1002316
:10E7C0002868220000937721023301F04FFD0028D2
:10E7D00003D000220021FEF739FF154B248818686A
:10E7E000144B64BA1B68A4B2241A5C43124BE413A2
:10E7F0000020185E114BC0020021595E091902F079
:10E800002DFE041920000830001103F087FD0122BD
:10E810000B4B0C491C800C4B1A8003F0F9F815B017
:10E8200030BD00220021FEF711FFC8E7E42C0020D4
:10E83000982D0020A42D0020B22D0020A02D002016
:10E840008E2D002000002041942D002070B5FFF790
:10E850001DFF2F4B040000229A5E02239B1A2D4AB3
:10E860000021525E934250DC2B4B2C480021595E14
:10E870002B4B0025405F9C4661440B004B431B1310
:10E880005843C6122748284A0025455F12782800B9
:10E890004843264DC01230180026AD5FAD00401928
:10E8A000234D90400026AD5F02306943214D49134E
:10E8B0000026AD5F80106B431B14CB188021241AF7
:10E8C00009021D488C4610411C49023309689B10FF
:10E8D00063444B436043D90B002812DB400002F035
:10E8E00033FD174903120A005B435A43154B434358
:10E8F00019141314144ACB18944663441B11C018FE
:10E9000070BD02F021FD4000EBE7FFF733FFABE7FE
:10E91000942D00208C2D00208E2D0020A82D00206D
:10E9200060F0FFFFAA2D0020B02D0020AC2D0020AC
:10E93000AE2D0020B42D002050C30000B82D0020C3
:10E94000DE0B000043E3FFFFCF0E0000F8B5051C0F
:10E95000FFF79CFE394B040000229A5E02239B1AAB
:10E96000374A0021525E934265DC364B364900221D
:10E970009A5E364B0E789C466244130034495343EA
:10E980000020085E33491B130027C95F58435143D9
:10E99000C012C912401830490027C95F89004018C9
:10E9A0002E49B0400027C95F02304A432C49521318
:10E9B0000027C95F80104B431B14D3188022241AF0
:10E9C0001202284894463041274A023311689B10AE
:10E9D00063444B436043D90B002828DB400002F01E
:10E9E000B3FC224903120A005B435A43204B4343C2
:10E9F000191413141F4ACB18944663441B11C018F2
:10EA000003F08CFC291C03F003F81B4901F0C0FD46
:10EA100005F0EAF902000B000020184904F090FE0E
:10EA20000022174B04F012FC05F032FAF8BD02F098
:10EA30008BFC4000D5E7FFF79DFE96E7942D002064
:10EA40008C2D00208E2D0020B02D002060F0FFFFC7
:10EA5000A82D0020AA2D0020AC2D0020AE2D0020D6
:10EA6000B42D002050C30000B82D0020DE0B0000A4
:10EA700043E3FFFFCF0E0000AEDC423E0000F03F5C
:10EA800040A5E540F0B557464E464546E0B4394C02
:10EA90000300A27D0820002A04D01CBC90469946A1
:10EAA000A246F0BD002B62D01A68A0200325C13217
:10EAB000FF32C005920015500122AA461D68AA40E7
:10EAC000A125ED004251A94600255A68AC46C13245
:10EAD000FF32920015509E69274A284D56515D7DA0
:10EAE000A84646461D7D3543254E95515D681E68F6
:10EAF000A846244D56514646234D56511D7D012DA5
:10EB00001AD19E683700E0267600B0464744BE0022
:10EB100067463750C137FF37B8465746DE68464428
:10EB2000B6003750DE68B5404E468551D8689D68BE
:10EB30009051A220C00015501A696160226000291E
:10EB400008D0197FC12311480B4A9B00D0500220E6
:10EB500000F0E2FCA0230421074ADB00D15000238F
:10EB60000122E374A374A2756375002095E709225E
:10EB7000074B9AE7E82C0020002000402405000005
:10EB80006C0500000C050000140500008000020068
:10EB9000EC500200F0B5264A0400937C1120002BB3
:10EBA00000D0F0BD0125917422482349138294605E
:10EBB0000B6005600B60138AE05C138A1F4C013305
:10EBC0009BB213821E4BE0505068002801D00020F9
:10EBD000E7E7002726001D000130FF30947C138AF0
:10EBE0009C4203D812E0138A834202D00B68002BA8
:10EBF000F9D0138A8342F2D00F60138A9468E45CE0
:10EC0000138A01339BB213827451E7E78023118A80
:10EC10005B0099420AD008490B68002BFCD0012107
:10EC20000020084B196000239374BAE70F20FAE71D
:10EC3000E82C0020082000401C210040002000405B
:10EC40001C0500000C200040F0B5474680B4344B52
:10EC50001122DC7C002C03D0100004BC9046F0BDD7
:10EC60005A7DD974D8601C75002A0AD05A68002AC7
:10EC70000FD08121C1232B4A89009B00D150002253
:10EC8000EAE729490A6029490A600121254A1160F9
:10EC9000ECE7244A244E9446A322D2009046234C0B
:10ECA000234D316820682A6800280BD1002A28D11A
:10ECB0000029F6D000221E490A601B490A60DA7456
:10ECC0000332C9E70029F5D1002A1CD14746604626
:10ECD0002260197DC059DF687854197DD87C0131D4
:10ECE000C9B21975197D8842DBD811490A600E49ED
:10ECF0000A60DA745B7D002B0DD00121094B19608D
:10ED0000AAE70029D6D1002209490A6006490A600B
:10ED1000DA740F32A0E70121064B19609CE7C04668
:10ED2000E82C002000200040242100400821004061
:10ED30004421004004200040064A537D002B07D1A7
:10ED400005490B6005490B60054901330B6053759C
:10ED50007047C046E82C00202421004008210040D4
:10ED600000200040C12210B5514B92009A5884B047
:10ED700092054CD54F4A1168002948D000211160F6
:10ED80008121C2228900920099504B4B5A7D002A62
:10ED900002D10121494A1160022269460A7090217C
:10EDA0004348C9004258425069460392DA7C68469B
:10EDB0000A72DA68196801920022DA745B6898476F
:10EDC0003F4A1368002B10D03B4B188A997C814234
:10EDD00051D9002111601A8A9968895C1A8A013216
:10EDE00092B21A82374B324AD150374B1A68002AF6
:10EDF0000BD000221A60304B5A7D002A02D001212C
:10EE00002B4A1160DA7C002A44D104B010BDC12322
:10EE1000274A9B00D3585B07D2D52C4B1968002991
:10EE2000CED00021A3241960234BE400187DD968BB
:10EE300012590A541A7DD87C0132D2B21A751A7D41
:10EE40009042BDD15A7D002A02D101201B4A106098
:10EE50008124C2221648A400920084506C461A7D78
:10EE600001202272002220700191DA74196868462C
:10EE70005B689847A4E7002010600029B5D06A4677
:10EE8000107011729A689874196801925B686846EC
:10EE90009847AAE768461A7D01210272DA68017074
:10EEA000019200221968DA745B689847ADE7C046A2
:10EEB0000020004024210040E82C002004200040D5
:10EEC0001C2100401C050000442100400821004096
:10EED00070B54425164C0820635D002B00D070BD32
:10EEE0004022FF21013BA3540132A1540132A3541B
:10EEF000236201326362A362E36223636363A363F9
:10EF0000E363FC390238A35423606360A360E360C9
:10EF100023616361A361E36100F0FEFA8021C123F4
:10EF2000044A9B000906D150012300206355D6E70F
:10EF3000002D0020006000404423034AD05C431EA3
:10EF40009841C0B27047C046002D0020F0B547463A
:10EF500080B4534C0825231820331E787F2E03D805
:10EF6000280004BC9046F0BDCD78AC46002D36D0CC
:10EF70002568013500D188E0042300269846731CDB
:10EF80009D006759013733D0B31C984525D99D00A2
:10EF9000675901372CD0F31C98451ED99D0067593D
:10EFA000013725D0331D984517D99D006759013782
:10EFB0001ED0731D984510D99D006759013717D091
:10EFC000B31D984509D99D006759013710D0073600
:10EFD000B04502D9E369013308D00425C0E72569AB
:10EFE000013557D0082304269846C8E707231C2577
:10EFF000625162462718DEB220373E70002A02D1E5
:10F00000E3183C3318708B78002B15D10300A02532
:10F010004A78C133FF3392009B00ED055A51CB78FB
:10F02000002B15D176B2A4193C340B7822789B01C1
:10F0300013432370002593E7A022D2059446E025D0
:10F04000022783006344ED005A59BA435A51E6E758
:10F05000144A0B789446A22176B2B6006644C900E1
:10F060007458114A000222407250F8225201104096
:10F070000500C022180403002800920274581340AF
:10F0800018432043705000256AE7002522601D7058
:10F090000026B8E7042522611D702E002B00AFE783
:10F0A000002D002000600040FFE0FCFFF0B5264D81
:10F0B0002C182034227853B2032B18DDEB183C3384
:10F0C0001B789B09032B32D0012B39D0C021890238
:10F0D000A023DB059C46E02380006044DB00C4588D
:10F0E0001A4A2240C250C2580A43C250F0BD032AF5
:10F0F000FCD81748A227844601269A006244FF00E4
:10F10000D0593043D0511A00604600274032920057
:10F1100092B217500029E9D00022A256920052590B
:10F12000002AE3D09E40C1239B00C650DEE7A22305
:10F13000A022DB00D205D258012383401A42C5D158
:10F1400080218902C4E7C046002D0020FFFFFCFF9C
:10F1500000600040A222A0210300D200C905885807
:10F16000D840012318407047F0B557464E464546F3
:10F17000E0B4D44A00241368012B00D1C1E0D24B83
:10F180001A68012A00D1CAE0D04B1A68012A00D1BE
:10F19000D5E0CF4B1A68012A00D1E0E0CD4B002525
:10F1A0001A68012A00D1EBE023070BD0E30700D552
:10F1B000FCE0A30700D508E1630700D513E12307AE
:10F1C00000D5E7E0002C04DB1CBC90469946A24623
:10F1D000F0BD4023C04CE15C4BB201331ED0C9B23C
:10F1E000C02308009843231820331B785BB29B0090
:10F1F0001E59002E12D0A0230127DB059C46E023D8
:10F20000874082006244DB00D35889099B039B0F2F
:10F210003D4200D10FE1022B00D173E14123E15CBB
:10F220004BB201331ED0C9B2C02308009843231843
:10F2300020331B785BB29B001E59002E12D0A023F6
:10F240000127DB059C46E023874082006244DB0007
:10F25000D35889099B039B0F3D4200D1D3E0022B79
:10F2600000D143E14223E15C4BB201331ED0C9B26D
:10F27000C02308009843231820331B785BB29B00FF
:10F280001E59002E12D0A0230127DB059C46E02347
:10F29000874082006244DB00D35889099B039B0F9F
:10F2A0003D4200D1F6E0022B00D125E14323E15C91
:10F2B0004BB2013300D187E7C9B2C023080098439D
:10F2C000231820331B785BB29B001E59002E00D1FF
:10F2D0007AE7A0230124DB059C46E02384408200DA
:10F2E0006244DB00D35889099B039B0F254200D160
:10F2F000BDE0022B00D067E7032900D108E1B04749
:10F3000062E7C1217548890041580B4200D136E7B8
:10F310006D4B14601A680134012A00D034E7C12211
:10F320006E499200895802220A4200D12CE700213E
:10F330001960664B14431A68012A00D029E7C122DC
:10F3400066499200895804220A4200D121E700212F
:10F3500019605F4B14431A68012A00D01EE7C122CE
:10F360005E499200895808220A4200D116E700211E
:10F370001960584B14431A680025012A00D013E77E
:10F380001D6080231B061C43A022A223D205DB00A4
:10F39000D55809E7514A524BD058D1584E4B8903A2
:10F3A000C004890FC00EDB6898470BE7A2234B4AC5
:10F3B000DB00D058D158484B8903C0041B68890F23
:10F3C000C00E9847A30700D4F6E6464B434AD058F0
:10F3D000D158414B8903C0045B68890FC00E984720
:10F3E000630700D4EBE6A3233C4ADB00D058D15896
:10F3F000394B8903C0049B68890FC00E98472307C7
:10F4000000D4DFE6C6E7032B00D02BE7032910D199
:10F4100080239B029C46E023DB009946324FD35861
:10F420001F404B46D750D75863463B431F004B46BF
:10F43000D750B04716E7032B00D0EFE6032914D1CD
:10F4400080239B029A46E023DB00D7589946B846B2
:10F45000254FBC46474663461F403B004F46D351AD
:10F46000D35957461F434B46D750B047D6E6032BD8
:10F4700000D0A9E6032900D041E78027BF02E0239E
:10F48000DB00D458184D2540D550D4583C43D450B7
:10F49000B04799E6032B00D008E7032910D1802359
:10F4A0009B029C46E023DB0099460F4FD3581F4038
:10F4B0004B46D750D75863463B431F004B46D75067
:10F4C000B047F3E60061004004610040086100407D
:10F4D0000C6100407C610040002D00200060004075
:10F4E0001C05000014050000FFFFFCFF0329A0D14C
:10F4F000C0239B029C468EE70329E1D1C0239B02D7
:10F500009C46CFE70329B0D1C0239B029A469AE7D5
:10F51000C027BF02B3E7C046F0B500281EDBFF26B8
:10F520001A4B37009C4603238208C025C0B2034013
:10F53000DB0089019F403140994092006244AD0058
:10F540005459BC43214351511F23C02118401E3B35
:10F5500083400E4A490053501360F0BDFF250C4A0A
:10F560002E00944603220F23C0B20240D20089012C
:10F570009640294091400340083B9B089B00634410
:10F58000DC69B4432143D961DEE7C04600E100E015
:10F5900000ED00E036DF704737DF70474379002128
:10F5A0005A00D3180F4ADB00D318822210B5046822
:10F5B0005200A1505A8242790B4992005258002AB7
:10F5C0000AD0C22201685C6992008C5002225A6102
:10F5D000C12301689B00CA500123026813620268BC
:10F5E000536110BD542D00204C2D002043795A004A
:10F5F000D318034ADB00D31801229A717047C04622
:10F60000542D0020F0B54D4644465F465646F0B4B2
:10F6100087B0994610AB1B780091019311AB1E780F
:10F620000023904604AA4479D371AB4B05005B6874
:10F630000427DB05DB0D6DD104ABD81DFFF7AAFF56
:10F64000022800D18DE0002800D09BE0A34B9A4611
:10F6500063009B461B19DB0053449A78002A47D16C
:10F6600001329A70012F00D076E05B466A461B1982
:10F670001278DB005344DA714A469A8142469A6016
:10F680000022DA816A4612791E715A7100229A713B
:10F6900001235E406B7992499C465B009846634427
:10F6A000DB0053445A788F4B92008F589B58002FA1
:10F6B0000FD01A78B24256D00833002106E01A0063
:10F6C0000833180008380078B0424DD00131B942F3
:10F6D000F5D1634662468449920052580020002AC0
:10F6E0005AD007B03CBC90469946A246AB46F0BD06
:10F6F00001230293012F2DD062B604ABD879FFF716
:10F700004BFF022302009A4341D1029B1120002BA0
:10F71000E7D1AAE7103BD9B24AB2002A00DABAE030
:10F72000032092087149C032920052580340D90018
:10F730001300CB409B090340DFB2012B00D07BE7D5
:10F74000664A9246620093461219D200524491785A
:10F75000002904D01120C4E700230293CCE7937062
:10F7600083E772B672E71A0043466344DB005178C0
:10F77000534459705368002BABD0280098476B79DD
:10F780009C46A7E700220021FDF760FF5EE700220C
:10F790000021FDF75BFFB8E75C44E20052441679B4
:10F7A000039471424E4100218B46110012320292A5
:10F7B00052468A4601922A000236009514685A0081
:10F7C000D318019ADB00944663445B8A92259846DD
:10F7D0000021A0446D00464FB44601E0002B43D108
:10F7E00043461E686359013118008F429241431EFF
:10F7F000984153420343002EF0D06646002B33D18C
:10F800005A46029B36491B88E3181A60009B019AEE
:10F810005B79944698465B0099464344DB00634419
:10F820005A78304B92008C589B58002C0FD01A7885
:10F83000B24221D00833002106E01A000833180034
:10F8400008380078B04218D00131A142F5D15346B2
:10F850009B79002B2FD15246D1899289914233D284
:10F86000009B009A5B79A9E792235A465B00E2501D
:10F87000009B05261C68C3E71A0001994B468C467D
:10F880004344DB005178634459705368002BDED049
:10F8900000989847DBE70F23164A0B409446032253
:10F8A000083B9B089B0063445B681140C900CB4048
:10F8B0009B09134040E7019B03209A46039BDC0011
:10F8C00000235444A3700CE7019A00209246039A47
:10F8D000D2005244937004E700ED00E0542D002064
:10F8E0000C510200985102004C2D002000E100E074
:10F8F000FE0F000018ED00E0F8B54F464646A32184
:10F90000C0B44379424D5A00D3180400DB000068AC
:10F91000EB18C900DA89415898688154013292B2D3
:10F92000DA819B89934203D80CBC90469946F8BD76
:10F9300080220320216892008B58667983437700E8
:10F940008B50BB19DB00EB18D98998890131012252
:10F95000814210D0802321689B00C858BE19024301
:10F96000CA502022F600AD192B7C2A742268D318C5
:10F9700001221A60D8E759790029EBD104322068B6
:10F98000FF3281505A82627991009046214A8A580A
:10F99000002A0CD0C22221685869920088500222A5
:10F9A0005A61C12321689B00CA5063799846434637
:10F9B0005B0099464344DB00EB185A7816499200E5
:10F9C000164B5058D35800280FD01A78042A0ED05E
:10F9D0000833002206E09C460833190008390978EC
:10F9E000042905D001328242F5D10222B2E79C46B9
:10F9F0004B4662464344DB005278EB185A7063462C
:10FA00005B68002BF1D0200098470222A2E7C04695
:10FA1000542D00204C2D00200C5102009851020062
:10FA2000F8B54F464646C0B48022447901680500C7
:10FA3000032092008B58670083438B50344E3B1950
:10FA4000DB00F318D989988901310122814213D052
:10FA5000802329689B00C8583C190243CA502022C1
:10FA6000E4003419237C22742A68D31801221A6016
:10FA70000CBC90469946F8BD59790029E8D104326A
:10FA80002868FF3281505A826A7991009046214A53
:10FA90008A58002A0CD0C2222968586992008850DE
:10FAA00002225A61C12329689B00CA506B7998468B
:10FAB00043465B0099464344DB00F3185A781649E5
:10FAC0009200164B5058D35800280FD01A78042AA9
:10FAD0000ED00833002206E09C460833190008398E
:10FAE0000978042905D001328242F5D10222AFE71C
:10FAF0009C464B4662464344DB005278F3185A70EA
:10FB000063465B68002BF1D02800984702229FE7EC
:10FB1000542D00204C2D00200C5102009851020061
:10FB2000F8B54F464646C0B443793F4E5A00D31805
:10FB3000DB00F318DA899B6801689A5C3B4B05008F
:10FB4000CA50802244790168032092008B586700D4
:10FB500083438B503B19DB00F318D9899889013115
:10FB60000122814213D0802329689B00C8583C1988
:10FB70000243CA502022E4003419237C22742A68EC
:10FB8000D31801221A600CBC90469946F8BD5979E9
:10FB90000029E8D104322868FF3281505A826A79FC
:10FBA00091009046224A8A58002A0CD0C222296825
:10FBB00058699200885002225A61C12329689B002B
:10FBC000CA506B79984643465B0099464344DB0034
:10FBD000F3185A7817499200174B5058D3580028F9
:10FBE0000FD01A78042A0ED00833002206E09C4673
:10FBF0000833190008390978042905D001328242F6
:10FC0000F5D10222AFE79C464B4662464344DB00F7
:10FC10005278F3185A7063465B68002BF1D02800C5
:10FC2000984702229FE7C046542D00201C05000083
:10FC30004C2D00200C51020098510200F8B54646A8
:10FC40004F46C0B443794D4E5A00D318B122DB0061
:10FC5000F3180500D9790068D200815001212A6883
:10FC60001162842200212868520081505A82444A3D
:10FC70001974904641466C79A2008A58002A0BD02C
:10FC8000C2225C69296892008C5004225A61C12307
:10FC900029689B00CA506C7980220327296892004A
:10FCA0008B58BB4367008B503B19DB00F3189A89D4
:10FCB000D989944601310122614513D080232968F6
:10FCC0009B00C8583C190243CA502022E400341952
:10FCD000237C22742A68D31801221A600CBC904637
:10FCE0009946F8BD59790029E8D104322868FF32D5
:10FCF000815041465A826A79944692008A58002A75
:10FD00000CD0C222296858699200885002225A6198
:10FD1000C12329689B00CA506B799C4663465B00EF
:10FD200099466344DB00F3185A7816499200164B43
:10FD30005058D35800280FD01A78042A0ED0083310
:10FD4000002206E09846083319000839097804298A
:10FD500005D001328242F5D10222AFE798464B46E8
:10FD600042466344DB005278F3185A7043465B689E
:10FD7000002BF1D02800984702229FE7542D002045
:10FD80004C2D00200C51020098510200F8B5464657
:10FD90004F46C0B44379534D5A00D318B122DB000B
:10FDA000EB180400D9790068D20081500121226843
:10FDB0001162082200211A7420681532FF32815026
:10FDC00049495A8288464046627991004158002943
:10FDD0000BD0C22221685E6992008E5080225A6147
:10FDE000C12321689B00CA50627953009A18D2003F
:10FDF000AA18D38992682168D25C3C4B0327CA5069
:10FE00008022216892008B586679BB4377008B5023
:10FE1000BB19DB00EB189A89D9899446013101227C
:10FE2000614513D0802321689B00C8580243CA5003
:10FE30002021BB19DB00EB181A7C197423689B186E
:10FE400001221A600CBC90469946F8BD59790029E8
:10FE5000E8D104322068FF32815041465A826279EB
:10FE6000944692008A58002A0CD0C2222168586910
:10FE70009200885002225A61C12321689B00CA5017
:10FE800063799C4663465B0099466344DB00EB184C
:10FE90005A7817499200174B5058D35800280FD062
:10FEA0001A78042A0ED00833002206E09846083358
:10FEB000190008390978042905D001328242F5D1A8
:10FEC0000222AFE798464B4642466344DB00527835
:10FED000EB185A7043465B68002BF1D0200098471E
:10FEE00002229FE7542D00204C2D00201C0500000D
:10FEF0000C51020098510200F8B54F464646C0B476
:10FF00004379424D5A00D318DB00EB18DA899989FE
:10FF1000013292B20400DA81914203D80CBC9046BF
:10FF20009946F8BD9B6801689A5C394BCA5080229B
:10FF300046790168032092008B58770083438B50E9
:10FF4000BB19DB00EB18D989988901310122814264
:10FF500010D0802321689B00C858BE190243CA50A4
:10FF60002022F600AD192B7C2A742268D3180122B6
:10FF70001A60D3E759790029EBD104322068FF32A7
:10FF800081505A82627991009046224A8A58002A0A
:10FF90000CD0C222216858699200885002225A610E
:10FFA000C12321689B00CA506379984643465B0091
:10FFB00099464344DB00EB185A7817499200174BD7
:10FFC0005058D35800280FD01A78042A0ED008337E
:10FFD000002206E09C4608331900083909780429F4
:10FFE00005D001328242F5D10222B2E79C464B464F
:10FFF00062464344DB005278EB185A7063465B68F4
:020000022000DC
:10000000002BF1D0200098470222A2E7542D0020B7
:100010001C0500004C2D00200C51020098510200DC
:10002000F0B557464E464546E0B4447906006000B8
:10003000684F0019C0003D5C0820002D04D01CBC96
:1000400090469946A246F0BD002900D1BDE0624825
:10005000A4000251614A8246A350614B6148E650B8
:10006000A0230A68DB05C132FF329200D0504A68F3
:10007000C132FF329200D050012210000C68A04023
:10008000A124E40018514868A44682401A510A6825
:100090005548C132FF329200D0504A68C132FF3217
:1000A0009200D05004200138C046C046C046C04629
:1000B000C046C046C046C046C046C046C046C04610
:1000C000F1D1A222D2009046484A0025012491464F
:1000D000424648689A58C240144200D072E022005A
:1000E0000868824048461A5004200138C046C0467D
:1000F000C046C046C046C046C046C046C046C046D0
:10010000C046C046F1D122000868824060461A50BD
:1001100004200138C046C046C046C046C046C0465E
:10012000C046C046C046C046C046C046F1D10135B3
:10013000092DCDD1486801231C00A02284402B4802
:10014000D205145004200138C046C046C046C046FF
:10015000C046C046C046C046C046C046C046C0466F
:10016000F1D148688340A120C0001350A0220B6841
:100170001C48C133FF33D2059B0098504B68C133F4
:10018000FF339B00985032688868194BD050A122E9
:1001900033680C68D20048689C50144A9850504606
:1001A00073799A008258002A05D00420097B3056C2
:1001B000FFF7B2F973795A00D3180122DB00FA5421
:1001C00000203CE7002DB6D1D0E70A4821014118B4
:1001D0003DE7C046542D00204C2D0020502D00201E
:1001E000482D00200C0600000D0600000C05000044
:1001F00024050000385102008222002301685200C9
:100200008B50016804328B50016814328B500168A6
:1002100008328B5043790D4A9B009B58002B05D028
:100220008022C123016892009B00CA50A0230522AE
:100230000168DB00CA504279054953009A18D3007F
:1002400002225A540022CB185A7070474C2D0020BD
:10025000542D002030B5012583B006AC24780195DB
:100260000094FFF7CFF903B030BDC04630B500258C
:1002700083B006AC247801950094FFF7C3F903B06E
:1002800030BDC046F0B54746424B92219C4680B4F3
:10029000414E4900728A58586244146800225A50EC
:1002A00008395A5014395A50043986B05A50002827
:1002B00032D1002C2CD03479631E9C4103231C1BAB
:1002C0002BE01F0060447B78C000301843707B68CF
:1002D000002B01D040469847B379002B41D0002332
:1002E0000222B37002AB1A70B3682C490393F389EE
:1002F000284804934358435002211A4200D1023146
:1003000002AB1973264B02A81968264B1B68984745
:1003100006B004BC9046F0BD0524234B23491B685E
:100320005879984643009C461B18DB00F3185A780E
:100330001F4B92005558D358002DCDD01A78A242A9
:10034000BFD00833002206E01F0008331900083927
:100350000978A142B6D00132AA42F5D1B379002B77
:10036000BDD1F489B289A242D2D8B3701022002143
:1003700002A8FBF777FF337902AA1370B3680494DD
:1003800001930393064B10001968064B1B689847AE
:10039000BEE7C04600300040542D0020C4040000D9
:1003A000502D00204C2D0020482D00200C51020023
:1003B000985102002EDF704751DF704710DF704701
:1003C00061DF704710B508001100FCF7F7FB10BDA6
:1003D000F0B557464E464546E0B4344B344E1D68A2
:1003E00099466B425D41334BEDB21C6898466342BF
:1003F0005C4182B0E4B2304FB246002D13D0002CE5
:1004000040D13C68338801A920000B80FFF7D8FF5A
:10041000052837D000282AD000220021FDF716F940
:100420000024002DEBD101A8FFF7C6FF05280DD051
:10043000002822D000220021FDF708F9002C27D047
:10044000012401A8FFF7B8FF0528F1D1002C19D12C
:1004500053466A461B8801A99380174B1C682000ED
:10046000FFF7AEFF05280DD001250028D4D1434663
:1004700020001B6898470024D3E74B4601981B686F
:100480009847DBE702B01CBC90469946A246F0BDF7
:100490006A46074B01A91B889380074B1C68200004
:1004A000FFF78EFF0528B5D10124CAE7742D00207F
:1004B0006E2D0020782D0020702D002070B50400D6
:1004C0000720002901D08D0700D070BD09480160C8
:1004D000094920000A80094A09491360FFF76EFFA5
:1004E0000028F2D10122074B16301A70FFF762FF85
:1004F000EBE7C046702D00206E2D00207C2D0020E3
:10050000C50302006C2D002010B50A4B1B68002BA0
:1005100008D09847002800D110BD00220021FDF727
:1005200095F8F9E7044B1B78002BF5D0FFF750FF47
:10053000F2E7C0467C2D00206C2D002003210A48E4
:1005400002680A430260094802680A4302600849D7
:10055000084A094B9B1A03DD043BC858D050FBDC0A
:1005600006488047064800472405004054050040DF
:10057000C4530200002800208828002011D5010063
:1005800075C10100FEE7FEE7FEE7FEE7FEE7FEE7D6
:10059000F0B546464F46C0B48BB0051C0C1C00F0AD
:1005A00099F90023C44F8046FB56061C013304D042
:1005B000201C00F03DFE002805D1301C0BB00CBC07
:1005C00090469946F0BD281C00F032FE002181467D
:1005D000002832D1201C01F077F80028EDD001234B
:1005E0000093B64B281C01934B46089303F0FCFB89
:1005F00002900391201C03F0F7FB0022B04B6E46E3
:10060000069207930023FB56049005915A1C39D09B
:10061000022B37D0300000F059FD002800D1A9E0AE
:10062000336A002B03D003F0DDFC336A0360B0694A
:10063000F16903F02DFC061CBFE7281C01F044F80B
:10064000002822D00021201C01F03EF8804600281E
:1006500058D001230093994B281C01930023089341
:1006600003F0C2FB02900391201C03F0BDFB0023AA
:100670000022069207930023FB566E4604900591D4
:10068000002BC7D0FE26B60597E7404600F0C6FD12
:100690008146002873D00021404601F015F84646F7
:1006A000002800D189E7281C00F0B8FD4646002844
:1006B00000D182E7201C00F0B1FD002800D17CE7CA
:1006C000042300937D4B281C01930023089303F01F
:1006D0008BFB02900391201C03F086FB0023002279
:1006E000069207930023FB566E4604900591022B59
:1006F00073D0684600F0EAFC00286ED0336A002B05
:1007000095D090E7201C00F089FD002800D154E727
:100710000021201C00F0DEFF002800D14DE701235E
:100720000093664B281C01934346089303F05CFB3F
:1007300002900391201C03F057FB3B786E46049017
:100740000591002B42D1002200230692079330002E
:1007500000F0BCFC0028D1D103F044FC212303604D
:10076000CCE71000190002F04DF906900791022C19
:1007700000D04FE703F036FC2123036050E7281C2C
:1007800000F04CFD002886D0201C00F047FD00281A
:1007900081D0404600F04CFD6E46002822D1012356
:1007A0000093464B0890281C019303F01DFB029018
:1007B0000391201C03F018FB3C7804900591002263
:1007C0000023002CCDD10692079323E700203D495A
:1007D00006900791022BBFD0B9E703F003FC222358
:1007E00003608BE703230093344B281C01934B4693
:1007F000089303F0F9FA02900391201C03F0F4FA35
:100800000023FB5604900591002B15D1E0222E4BBE
:1008100012060021281C0692079300F05BFF0028B7
:1008200019D1300000F052FC002800D0F8E603F0A7
:10083000D9FB22230360F3E60022244B0021281C6D
:100840000692079300F046FF00281DD10023FB56B7
:10085000022BE6D1EBE7FC21201C890501F0A2FA6E
:1008600003F0C2FA04000D0000F032FC02000B009D
:100870002000290000F0EEFE0028E7D1E022144B12
:10088000120606920793E1E7FC21201C890501F07E
:1008900089FA03F0A9FA04000D0000F019FC020027
:1008A0000B002000290000F0D5FE0028CED1002248
:1008B000044B06920793C9E77F280020CC51020021
:1008C0000000F03F0000F0FFFFFFEF470000F07F67
:1008D000FFFFEFC7F0B5444656464D465F46F0B4BD
:1008E0004E0087B0051C0C1C8846760810D0FF23EC
:1008F000470081467F08DB059F4203DD674800F023
:10090000B7FC07E09E420CDDFE239B059F42F5D11C
:10091000FE20800507B03CBC90469946A246AB46F7
:10092000F0BD00230093002866DBFF23DB059E4219
:1009300057D0FE239B059E4273D08023DB0598454C
:1009400000D192E0FC239B05984522D0281C00F0A2
:1009500061FCFF22031CD20597426DD0002F6BD0A3
:10096000FE229205974267D0EA0F013A9346594614
:10097000009A0A4300D188E09A22D205964200DC10
:100980009AE0474A974220DC4346002B24DB0020B4
:10099000C0E74B46281C002B6CDA00F03BFCFF2222
:1009A000031CD205974201D0002FD9D13D4A94466D
:1009B000009A6744174360D0181C009B012BA9D1F3
:1009C00080231B06C418201CA4E7374A974200DC8A
:1009D000C7E24346002BDADD3449081C01F0E2F996
:1009E00098E7FE239B059F4292D037DD4346201CAB
:1009F000002B00DB8EE7CAE72D4B9E422BDC2D4BF4
:100A00009E4296DD9622F315D31A32001A41110048
:100A100099408E428DD101231A4001339B1A0093D5
:100A200087E74346281C002B00DB73E7FE20291CC8
:100A3000800500F0EDFF6DE74246002A05DAFE2052
:100A4000191C800500F0E4FF031C4A46181C002A0C
:100A500000DB5FE7AAE70223009366E74346002B2B
:100A600095DA80231B06E01854E7291C281C01F0A6
:100A700099F94FE700F0CEFA4CE7191C181C01F069
:100A8000A5FA011C00F0C4FF44E7291C281C01F052
:100A90009DFA011C00F0BCFF3CE7C046BC4F0200C1
:100AA000F7FF7F3F000080C00700803FCAF2497116
:100AB000FFFF7F4BFFFF7F3FEE4900228F4207DCA5
:100AC0009721181CC90501F06DF918220700524240
:100AD000FB157802FE277F3B9B181A000193E64B1B
:100AE000400ABF050743984209DDE44B984200DC09
:100AF0002CE2130001330193E14B9C466744002331
:100B00000493039300230293FE239B0599464946D1
:100B1000381C01F05BFA49468246381C00F002FEA0
:100B2000011CFE20800500F073FF011C059050465B
:100B300001F038F980233D1C9B057F101F43802363
:100B4000DB029C46029B67449C46060B67443603C7
:100B50008046391C301C01F025F9011C504601F07B
:100B600035FA49468246381C01F030FA011C281C2F
:100B700001F02CFA311C01F015F9011C504601F06E
:100B800025FA059901F00EF941468146404601F0EB
:100B900009F9BC49071C01F005F9BB4900F0C2FD89
:100BA000391C01F0FFF8B94900F0BCFD391C01F017
:100BB000F9F8B74900F0B6FD391C01F0F3F8B54972
:100BC00000F0B0FD391C01F0EDF8B34900F0AAFDCA
:100BD000391C8246381C01F0E5F8011C504601F032
:100BE000E1F8311C071C404600F09CFD494601F02D
:100BF000D9F8391C00F096FD311C8246301C01F0FA
:100C0000D1F8A649051C00F08DFD514600F08AFD83
:100C1000070B3F03391C301C01F0C4F89F49061C28
:100C2000381C01F0D3F9291C01F0D0F9011C504601
:100C300001F0CCF9414601F0B5F8391C8046484630
:100C400001F0B0F8011C404600F06CFD8146011C2B
:100C5000301C00F067FD070B3F039149381C01F081
:100C6000A1F8311C051C381C01F0B0F9011C4846E4
:100C700001F0ACF98B4901F095F88B49061C381C42
:100C800001F090F8011C301C00F04CFD039900F0BD
:100C900049FD071C019801F041FB8146391C281CC5
:100CA00000F040FD049B191C984600F03BFD4946AE
:100CB00000F038FD060B36034946301C01F086F97A
:100CC000414601F083F9291C01F080F9011C381C10
:100CD00001F07CF980465B46009D013D1D4300D13B
:100CE000AFE0FE27BF05250B2D03291C201C01F0BA
:100CF0006DF9311C01F056F8211C8146404601F087
:100D000051F8011C484600F00DFD291C8046301C9E
:100D100001F048F8011C061C8146404600F002FD27
:100D20004400824605006408002800DCF8E08623C1
:100D3000DB059C4200DD95E000D184E0FC239B05AF
:100D40009C4200DDC8E0002300249B462D0B2D03B0
:100D50005649281C01F026F849468246281C01F015
:100D600035F9011C404601F031F9514901F01AF8FA
:100D70005049061C281C01F015F8011C301C00F01D
:100D8000D1FC061C011C504600F0CCFC5146051C51
:100D900001F01CF9011C301C01F018F9291C8146D6
:100DA000281C00F0FFFF4449061C00F0FBFF4349EC
:100DB00001F00CF9311C00F0F5FF414900F0B2FCE4
:100DC000311C00F0EFFF3F4901F000F9311C00F049
:100DD000E9FF3D4900F0A6FC311C00F0E3FF011CD7
:100DE000281C01F0F3F88046011C281C00F0DAFFF3
:100DF00080218246C905404601F0E8F8011C5046B2
:100E000000F006FE49468046281C00F0CBFF49460C
:100E100000F088FC011C404601F0D8F8291C01F0C4
:100E2000D5F8011CFE20800501F0D0F85B461B18A8
:100E3000DA15002A00DCD7E0181C391C00F0B2FFDC
:100E400068E5224F4FE72249404600F06BFC311C19
:100E50008146504601F0BAF8011C484600F04EFCAD
:100E6000002839D01B49381C00F09CFF194900F0BC
:100E700099FF4FE5FFFF7F0071C41C00D6B35D00F2
:100E8000000080FF42F1533E55326C3E05A38B3E7D
:100E9000ABAAAA3EB76DDB3E9A99193F00004040CD
:100EA0000038763F4F38763FA0C39D360072313F01
:100EB0001872313F8CBEBF354CBB31330EEADD3585
:100EC00055B38A38610B363BABAA2A3E000080BF7F
:100ED0003CAA3833CAF24971802000040300E415AB
:100EE0007E3C23415B195A001C005B025B0A0343F2
:100EF0001720120E3E497F3A1141821A13418C434A
:100F000021001C00002D6DDB301C01F05FF8011C7E
:100F10008146404600F006FCE30505009B4615E7C8
:100F2000344B9C420ADC00D008E7311C01F04EF83B
:100F3000011C404600F0D8FB0028CDD02E49381CBB
:100F400000F030FF2C4900F02DFFE3E42B4B04931D
:100F50002B4B039380239B030293FF239B0599460E
:100F6000D5E5FE21181C890501F030F82549061C3D
:100F700000F018FF2449071C301C00F013FFFA2171
:100F8000051C8905301C00F00DFF011C1F4801F0F5
:100F90001DF8311C00F006FF011CFC20800501F04B
:100FA00015F8311C8146301C00F0FCFE011C48463F
:100FB00000F0F8FE164900F0F5FE011C281C01F0B7
:100FC00005F8011C051C381C00F0ACFB060B3603B1
:100FD000391C301C00F0FAFF011C281C00F0F6FF41
:100FE000804678E65C428FE7210000F045F924E76F
:100FF000FFFF7F00000016436042A20D00C0153FB6
:10100000DCCFD13500AAB83F70A5EC36ABAAAA3E1A
:101010003BAAB83F2B49420070B50300041C52089C
:101020008A423AD8002A37D000283FDB2649C0152B
:101030008A420BD8013121423FD100220C0000E04E
:101040000A005B00511C2342FAD0801A80225B0206
:101050005B0A12047F381343C20725D4802219216A
:101060000025002640105B005204B4189C4202DCAC
:10107000A6181B1BAD1801395B0052080029F4D1DA
:10108000002B02D001232B40ED18FC239B059C462E
:101090006D106544C005401970BD011C00F082FE52
:1010A000211C00F03FFBF7E75B00D7E7011C00F0D5
:1010B0008DFF011C00F0ACFCEEE701225242801AC9
:1010C000C4E7C046FFFF7F7FFFFF7F00002070471F
:1010D000F0B5474680B4CB0F98464A4C4B005B0DA9
:1010E0001E1982B007000A00132E35DC002E57DBD4
:1010F000454B040033411F000F4007430D00002FF4
:1011000024D05B081C000C4020430027002807D097
:10111000132E00D172E08022D202324199430A4359
:101120004346DE00394B11009E193468756838005B
:1011300022002B0001F03AF90090019100980199EA
:1011400022002B0002F0FCFA04000D002000290010
:1011500002B004BC9046F0BD332E0CDD80230400A9
:101160000D00DB009E42F1D102000B0001F01EF9E0
:1011700004000D00EAE7264C0D00A4460124634458
:101180006442DC40A446614604000142DED04908C6
:101190000142C5D08027FF051F4188430743BFE7B1
:1011A0004B005B08034304000D00002BCED00B0363
:1011B0001B0B03435A42134380221B0B12031340A1
:1011C0004A0C5204134319004346104ADB00D3185B
:1011D0001C685D6822002B0001F0E8F80090019186
:1011E0000098019922002B0002F0AAFA42464B0017
:1011F0005B08D607334304001D00A7E780273F069E
:1012000089E7C04601FCFFFFFFFF0F00D851020035
:10121000EDFBFFFF400040087047C0464300002040
:10122000024A5B089A4240417047C046FFFF7F7FF9
:1012300043005B080220002B00D17047084A09498F
:101240009A1802308A42F8D907495A1E01388A4250
:10125000F3D9064A9446634458425841EDE7C046E4
:10126000000080FFFFFFFF7EFEFF7F000000808008
:10127000004870470000C07F430070B50D00041C9B
:10128000590810D0264EB1420ED8264881420FD9B7
:1012900020001B0E5B19FE2B29DC002B15DD2249DB
:1012A000DB050840184370BD011C00F03BFAFAE76B
:1012B0009821201CC90500F075FD1C4B041C9D42A3
:1012C00011DB43001B0E193BE4E71A00163216DA55
:1012D000174B211C9D421CDD164800F02FF81549C4
:1012E00000F060FDDFE7144900F05CFDDBE7211C46
:1012F000104800F023F80F4900F054FDD3E7CC214B
:101300001933DA05084B89051840104300F04AFDEF
:10131000C9E7094800F012F8074900F043FDC2E7A9
:10132000FFFF7F7FFFFF7F00FFFF7F80B03CFFFF5D
:1013300050C30000CAF249716042A20D4000C90FBB
:10134000C907400808437047002243088B4274D302
:1013500003098B425FD3030A8B4244D3030B8B42B6
:1013600028D3030C8B420DD3FF22090212BA030CBF
:101370008B4202D31212090265D0030B8B4219D3A0
:1013800000E0090AC30B8B4201D3CB03C01A5241C0
:10139000830B8B4201D38B03C01A5241430B8B4208
:1013A00001D34B03C01A5241030B8B4201D30B03F1
:1013B000C01A5241C30A8B4201D3CB02C01A524118
:1013C000830A8B4201D38B02C01A5241430A8B42DB
:1013D00001D34B02C01A5241030A8B4201D30B02C4
:1013E000C01A5241CDD2C3098B4201D3CB01C01ADE
:1013F000524183098B4201D38B01C01A52414309E8
:101400008B4201D34B01C01A524103098B4201D3D5
:101410000B01C01A5241C3088B4201D3CB00C01A42
:10142000524183088B4201D38B00C01A52414308BA
:101430008B4201D34B00C01A5241411A00D20146DF
:10144000524110467047FFE701B5002000F0F0F868
:1014500002BDC0460029F7D076E7704703460B432C
:101460007FD4002243088B4274D303098B425FD39D
:10147000030A8B4244D3030B8B4228D3030C8B42C9
:101480000DD3FF22090212BA030C8B4202D31212AF
:10149000090265D0030B8B4219D300E0090AC30B84
:1014A0008B4201D3CB03C01A5241830B8B4201D331
:1014B0008B03C01A5241430B8B4201D34B03C01A1A
:1014C0005241030B8B4201D30B03C01A5241C30A92
:1014D0008B4201D3CB02C01A5241830A8B4201D303
:1014E0008B02C01A5241430A8B4201D34B02C01AED
:1014F0005241030A8B4201D30B02C01A5241CDD292
:10150000C3098B4201D3CB01C01A524183098B42DC
:1015100001D38B01C01A524143098B4201D34B01C5
:10152000C01A524103098B4201D30B01C01A524128
:10153000C3088B4201D3CB00C01A524183088B42AF
:1015400001D38B00C01A524143088B4201D34B0098
:10155000C01A5241411A00D201465241104670470A
:101560005DE0CA0F00D04942031000D3404253400F
:1015700000229C4603098B422DD3030A8B4212D3CF
:10158000FC22890112BA030A8B420CD38901921101
:101590008B4208D3890192118B4204D389013AD03E
:1015A000921100E08909C3098B4201D3CB01C01A13
:1015B000524183098B4201D38B01C01A5241430926
:1015C0008B4201D34B01C01A524103098B4201D314
:1015D0000B01C01A5241C3088B4201D3CB00C01A81
:1015E000524183088B4201D38B00C01A5241D9D299
:1015F00043088B4201D34B00C01A5241411A00D21A
:101600000146634652415B10104601D34042002B15
:1016100000D54942704763465B1000D3404201B594
:10162000002000F005F802BD0029F8D016E7704749
:101630007047C0468446101C62468C46191C63469F
:1016400000E0C0461FB501F097FD002801D400213D
:10165000C8421FBD10B501F0EBFC4042013010BD87
:1016600010B501F089FD002801DB002010BD01202C
:1016700010BDC04610B501F07FFD002801DD00203F
:1016800010BD012010BDC04610B501F011FD0028AD
:1016900001DC002010BD012010BDC04610B501F0D6
:1016A00007FD002801DA002010BD012010BDC04652
:1016B0008446081C6146FFE71FB500F02FFB002899
:1016C00001D40021C8421FBD10B500F0BBFA404252
:1016D000013010BD10B500F021FB002801DB002017
:1016E00010BD012010BDC04610B500F017FB00284A
:1016F00001DD002010BD012010BDC04610B500F076
:10170000C9FA002801DC002010BD012010BDC04630
:1017100010B500F0BFFA002801DA002010BD01204A
:1017200010BDC046F8B54A02430244004E00C50F42
:10173000240E28009B09360EC90F92098D4259D0FC
:10174000A01B002800DC8DE0002E1AD1002A00D05A
:1017500079E05A0704D00F221A40042A00D004333B
:101760005A0138D50134FF2C00D189E028009B01B3
:101770005B0AE4B25B02E4055B0A2343C00718433B
:10178000F8BDFF2CE5D08021C9040A431B2800DDE9
:1017900089E016002021C640081A8240511E8A4165
:1017A00032439B1A5A0114D59B019E09300002F066
:1017B000FBFB05388640844265DC041B3300202097
:1017C0000134E340041BA640721E964100243343BB
:1017D000BFE75A07BFD1DF082800FF2C2FD1002F09
:1017E00000D187E08022D20313003B435B025B0AF7
:1017F000FF24BFE7A11B002949DD002E29D0FF2CC3
:10180000A7D08026F60432431B2900DD8DE01700A7
:101810002026CF40711A8A40511E8A413A439B18B4
:101820005A01D6D50134FF2C64D0012276491A40E2
:101830005B080B4013438CE7031ECAD100207B02D8
:101840005B0AE4B296E701380028AAD0FF2C9DD1AC
:101850007FE7002A00D17CE701390029DFD0FF2C87
:10186000D2D176E7002820D1601CC0B2012853DD18
:1018700080279E1AFF0437402FD0D61A0D0095E717
:101880002800002376E7614B241A334061E70029E2
:101890004DD1611CCEB2012E2FDDFF292AD09B181D
:1018A0005B080C0055E701227BE7002C1BD1002BC5
:1018B0005BD0C04300280CD0FF2E7ED01B2800DD5B
:1018C00092E01D002024C540201A8340581E834109
:1018D0002B43D31A34000D0064E7002E00D065E7D7
:1018E00000200024ABE7FF2E67D08024E4044042B0
:1018F0002343E3E7FF2400233CE7002C61D1002BC6
:101900007ED0002A00D124E79B185A0100D460E75A
:101910003E4A0C0013401CE7002C1ED1002B2FD197
:10192000002A66D013000D0013E7012277E7002C90
:101930001FD1002B5AD0C94300290BD0FF2E50D005
:101940001B295FDC1F002024CF40611A8B40591EE9
:101950008B413B439B18340062E7002B1CD1002ACB
:101960004AD013000D00FF24F3E6130034000D00ED
:10197000EFE6FF2E35D08024E40449422343DFE71D
:10198000002A00D1E5E68027981AFF04074000D11D
:1019900052E7D31A0D00DCE6FF24002A00D1D8E676
:1019A0008020DB08C003034204D0D208024201D1E8
:1019B00013000D00DB00FF24CBE61300FF240D0015
:1019C000C7E6002B0DD0FF24002A00D1C1E68021FC
:1019D000DB08C9030B42EDD0D2080A42EAD113005A
:1019E000E8E71300FF24B4E6012372E71300340094
:1019F000AFE60027002022E780270020FF03F1E662
:101A00001300A6E60123A5E7FFFFFF7DFFFFFFFB15
:101A1000F0B5564644465F464D46F0B44402460093
:101A2000C70F83B08846650A360EBA463DD0FF2EF2
:101A300022D00023EC00802599469B46ED042543E7
:101A40007F3E43465C025800DB0F640A000E984656
:101A500036D0FF2830D080230021E400DB041C4373
:101A60007F38301A0190484642460843724E800043
:101A700030587A4013008746002D44D108239946F8
:101A8000063B9B46DDE70122FF2000241A4064024A
:101A9000C305640AD2071C431443200003B03CBCB6
:101AA00090469946A246AB46F0BD002D20D10423B6
:101AB0009946033B9B46C4E7002C17D1022102E064
:101AC000002C0AD10121321A01924A4643460A43A8
